{
  "_format": "hh-sol-artifact-1",
  "contractName": "ModredIP",
  "sourceName": "contracts/ModredIP.sol",
  "abi": [
    {
      "inputs": [
        {
          "internalType": "address",
          "name": "_registry",
          "type": "address"
        },
        {
          "internalType": "address",
          "name": "_accountImplementation",
          "type": "address"
        },
        {
          "internalType": "uint256",
          "name": "_chainId",
          "type": "uint256"
        },
        {
          "internalType": "address",
          "name": "_platformFeeCollector",
          "type": "address"
        }
      ],
      "stateMutability": "nonpayable",
      "type": "constructor"
    },
    {
      "inputs": [
        {
          "internalType": "address",
          "name": "sender",
          "type": "address"
        },
        {
          "internalType": "uint256",
          "name": "tokenId",
          "type": "uint256"
        },
        {
          "internalType": "address",
          "name": "owner",
          "type": "address"
        }
      ],
      "name": "ERC721IncorrectOwner",
      "type": "error"
    },
    {
      "inputs": [
        {
          "internalType": "address",
          "name": "operator",
          "type": "address"
        },
        {
          "internalType": "uint256",
          "name": "tokenId",
          "type": "uint256"
        }
      ],
      "name": "ERC721InsufficientApproval",
      "type": "error"
    },
    {
      "inputs": [
        {
          "internalType": "address",
          "name": "approver",
          "type": "address"
        }
      ],
      "name": "ERC721InvalidApprover",
      "type": "error"
    },
    {
      "inputs": [
        {
          "internalType": "address",
          "name": "operator",
          "type": "address"
        }
      ],
      "name": "ERC721InvalidOperator",
      "type": "error"
    },
    {
      "inputs": [
        {
          "internalType": "address",
          "name": "owner",
          "type": "address"
        }
      ],
      "name": "ERC721InvalidOwner",
      "type": "error"
    },
    {
      "inputs": [
        {
          "internalType": "address",
          "name": "receiver",
          "type": "address"
        }
      ],
      "name": "ERC721InvalidReceiver",
      "type": "error"
    },
    {
      "inputs": [
        {
          "internalType": "address",
          "name": "sender",
          "type": "address"
        }
      ],
      "name": "ERC721InvalidSender",
      "type": "error"
    },
    {
      "inputs": [
        {
          "internalType": "uint256",
          "name": "tokenId",
          "type": "uint256"
        }
      ],
      "name": "ERC721NonexistentToken",
      "type": "error"
    },
    {
      "inputs": [
        {
          "internalType": "address",
          "name": "owner",
          "type": "address"
        }
      ],
      "name": "OwnableInvalidOwner",
      "type": "error"
    },
    {
      "inputs": [
        {
          "internalType": "address",
          "name": "account",
          "type": "address"
        }
      ],
      "name": "OwnableUnauthorizedAccount",
      "type": "error"
    },
    {
      "inputs": [],
      "name": "ReentrancyGuardReentrantCall",
      "type": "error"
    },
    {
      "anonymous": false,
      "inputs": [
        {
          "indexed": true,
          "internalType": "address",
          "name": "owner",
          "type": "address"
        },
        {
          "indexed": true,
          "internalType": "address",
          "name": "approved",
          "type": "address"
        },
        {
          "indexed": true,
          "internalType": "uint256",
          "name": "tokenId",
          "type": "uint256"
        }
      ],
      "name": "Approval",
      "type": "event"
    },
    {
      "anonymous": false,
      "inputs": [
        {
          "indexed": true,
          "internalType": "address",
          "name": "owner",
          "type": "address"
        },
        {
          "indexed": true,
          "internalType": "address",
          "name": "operator",
          "type": "address"
        },
        {
          "indexed": false,
          "internalType": "bool",
          "name": "approved",
          "type": "bool"
        }
      ],
      "name": "ApprovalForAll",
      "type": "event"
    },
    {
      "anonymous": false,
      "inputs": [
        {
          "indexed": true,
          "internalType": "uint256",
          "name": "disputeId",
          "type": "uint256"
        },
        {
          "indexed": true,
          "internalType": "uint256",
          "name": "tokenId",
          "type": "uint256"
        },
        {
          "indexed": true,
          "internalType": "address",
          "name": "disputer",
          "type": "address"
        }
      ],
      "name": "DisputeRaised",
      "type": "event"
    },
    {
      "anonymous": false,
      "inputs": [
        {
          "indexed": true,
          "internalType": "uint256",
          "name": "disputeId",
          "type": "uint256"
        },
        {
          "indexed": true,
          "internalType": "uint256",
          "name": "tokenId",
          "type": "uint256"
        },
        {
          "indexed": false,
          "internalType": "bool",
          "name": "resolved",
          "type": "bool"
        }
      ],
      "name": "DisputeResolved",
      "type": "event"
    },
    {
      "anonymous": false,
      "inputs": [
        {
          "indexed": true,
          "internalType": "uint256",
          "name": "tokenId",
          "type": "uint256"
        },
        {
          "indexed": true,
          "internalType": "address",
          "name": "owner",
          "type": "address"
        },
        {
          "indexed": false,
          "internalType": "string",
          "name": "ipHash",
          "type": "string"
        }
      ],
      "name": "IPRegistered",
      "type": "event"
    },
    {
      "anonymous": false,
      "inputs": [
        {
          "indexed": true,
          "internalType": "uint256",
          "name": "tokenId",
          "type": "uint256"
        },
        {
          "indexed": true,
          "internalType": "address",
          "name": "from",
          "type": "address"
        },
        {
          "indexed": true,
          "internalType": "address",
          "name": "to",
          "type": "address"
        }
      ],
      "name": "IPTransferred",
      "type": "event"
    },
    {
      "anonymous": false,
      "inputs": [
        {
          "indexed": true,
          "internalType": "uint256",
          "name": "licenseId",
          "type": "uint256"
        },
        {
          "indexed": true,
          "internalType": "uint256",
          "name": "tokenId",
          "type": "uint256"
        },
        {
          "indexed": true,
          "internalType": "address",
          "name": "licensee",
          "type": "address"
        }
      ],
      "name": "LicenseMinted",
      "type": "event"
    },
    {
      "anonymous": false,
      "inputs": [
        {
          "indexed": true,
          "internalType": "address",
          "name": "previousOwner",
          "type": "address"
        },
        {
          "indexed": true,
          "internalType": "address",
          "name": "newOwner",
          "type": "address"
        }
      ],
      "name": "OwnershipTransferred",
      "type": "event"
    },
    {
      "anonymous": false,
      "inputs": [
        {
          "indexed": true,
          "internalType": "uint256",
          "name": "tokenId",
          "type": "uint256"
        },
        {
          "indexed": false,
          "internalType": "uint256",
          "name": "amount",
          "type": "uint256"
        }
      ],
      "name": "RevenuePaid",
      "type": "event"
    },
    {
      "anonymous": false,
      "inputs": [
        {
          "indexed": true,
          "internalType": "uint256",
          "name": "tokenId",
          "type": "uint256"
        },
        {
          "indexed": true,
          "internalType": "address",
          "name": "claimant",
          "type": "address"
        },
        {
          "indexed": false,
          "internalType": "uint256",
          "name": "amount",
          "type": "uint256"
        }
      ],
      "name": "RoyaltyClaimed",
      "type": "event"
    },
    {
      "anonymous": false,
      "inputs": [
        {
          "indexed": true,
          "internalType": "address",
          "name": "from",
          "type": "address"
        },
        {
          "indexed": true,
          "internalType": "address",
          "name": "to",
          "type": "address"
        },
        {
          "indexed": true,
          "internalType": "uint256",
          "name": "tokenId",
          "type": "uint256"
        }
      ],
      "name": "Transfer",
      "type": "event"
    },
    {
      "inputs": [],
      "name": "DISPUTE_TIMEOUT",
      "outputs": [
        {
          "internalType": "uint256",
          "name": "",
          "type": "uint256"
        }
      ],
      "stateMutability": "view",
      "type": "function"
    },
    {
      "inputs": [],
      "name": "MINIMUM_LICENSE_DURATION",
      "outputs": [
        {
          "internalType": "uint256",
          "name": "",
          "type": "uint256"
        }
      ],
      "stateMutability": "view",
      "type": "function"
    },
    {
      "inputs": [],
      "name": "ROYALTY_DECIMALS",
      "outputs": [
        {
          "internalType": "uint256",
          "name": "",
          "type": "uint256"
        }
      ],
      "stateMutability": "view",
      "type": "function"
    },
    {
      "inputs": [],
      "name": "accountImplementation",
      "outputs": [
        {
          "internalType": "address",
          "name": "",
          "type": "address"
        }
      ],
      "stateMutability": "view",
      "type": "function"
    },
    {
      "inputs": [
        {
          "internalType": "address",
          "name": "to",
          "type": "address"
        },
        {
          "internalType": "uint256",
          "name": "tokenId",
          "type": "uint256"
        }
      ],
      "name": "approve",
      "outputs": [],
      "stateMutability": "nonpayable",
      "type": "function"
    },
    {
      "inputs": [
        {
          "internalType": "address",
          "name": "owner",
          "type": "address"
        }
      ],
      "name": "balanceOf",
      "outputs": [
        {
          "internalType": "uint256",
          "name": "",
          "type": "uint256"
        }
      ],
      "stateMutability": "view",
      "type": "function"
    },
    {
      "inputs": [],
      "name": "chainId",
      "outputs": [
        {
          "internalType": "uint256",
          "name": "",
          "type": "uint256"
        }
      ],
      "stateMutability": "view",
      "type": "function"
    },
    {
      "inputs": [
        {
          "internalType": "uint256",
          "name": "tokenId",
          "type": "uint256"
        }
      ],
      "name": "claimRoyalties",
      "outputs": [],
      "stateMutability": "nonpayable",
      "type": "function"
    },
    {
      "inputs": [
        {
          "internalType": "uint256",
          "name": "",
          "type": "uint256"
        }
      ],
      "name": "disputes",
      "outputs": [
        {
          "internalType": "uint256",
          "name": "disputeId",
          "type": "uint256"
        },
        {
          "internalType": "uint256",
          "name": "tokenId",
          "type": "uint256"
        },
        {
          "internalType": "address",
          "name": "disputer",
          "type": "address"
        },
        {
          "internalType": "string",
          "name": "reason",
          "type": "string"
        },
        {
          "internalType": "uint256",
          "name": "timestamp",
          "type": "uint256"
        },
        {
          "internalType": "bool",
          "name": "isResolved",
          "type": "bool"
        }
      ],
      "stateMutability": "view",
      "type": "function"
    },
    {
      "inputs": [
        {
          "internalType": "uint256",
          "name": "tokenId",
          "type": "uint256"
        }
      ],
      "name": "getApproved",
      "outputs": [
        {
          "internalType": "address",
          "name": "",
          "type": "address"
        }
      ],
      "stateMutability": "view",
      "type": "function"
    },
    {
      "inputs": [
        {
          "internalType": "uint256",
          "name": "tokenId",
          "type": "uint256"
        }
      ],
      "name": "getIPAccount",
      "outputs": [
        {
          "internalType": "address",
          "name": "",
          "type": "address"
        }
      ],
      "stateMutability": "view",
      "type": "function"
    },
    {
      "inputs": [
        {
          "internalType": "uint256",
          "name": "tokenId",
          "type": "uint256"
        }
      ],
      "name": "getIPAsset",
      "outputs": [
        {
          "internalType": "address",
          "name": "owner_",
          "type": "address"
        },
        {
          "internalType": "string",
          "name": "ipHash_",
          "type": "string"
        },
        {
          "internalType": "string",
          "name": "metadata_",
          "type": "string"
        },
        {
          "internalType": "bool",
          "name": "isEncrypted_",
          "type": "bool"
        },
        {
          "internalType": "bool",
          "name": "isDisputed_",
          "type": "bool"
        },
        {
          "internalType": "uint256",
          "name": "registrationDate_",
          "type": "uint256"
        },
        {
          "internalType": "uint256",
          "name": "totalRevenue_",
          "type": "uint256"
        },
        {
          "internalType": "uint256",
          "name": "royaltyTokens_",
          "type": "uint256"
        }
      ],
      "stateMutability": "view",
      "type": "function"
    },
    {
      "inputs": [
        {
          "internalType": "uint256",
          "name": "licenseId",
          "type": "uint256"
        }
      ],
      "name": "getLicense",
      "outputs": [
        {
          "internalType": "address",
          "name": "licensee_",
          "type": "address"
        },
        {
          "internalType": "uint256",
          "name": "tokenId_",
          "type": "uint256"
        },
        {
          "internalType": "uint256",
          "name": "royaltyPercentage_",
          "type": "uint256"
        },
        {
          "internalType": "uint256",
          "name": "duration_",
          "type": "uint256"
        },
        {
          "internalType": "uint256",
          "name": "startDate_",
          "type": "uint256"
        },
        {
          "internalType": "bool",
          "name": "isActive_",
          "type": "bool"
        },
        {
          "internalType": "bool",
          "name": "commercialUse_",
          "type": "bool"
        },
        {
          "internalType": "string",
          "name": "terms_",
          "type": "string"
        }
      ],
      "stateMutability": "view",
      "type": "function"
    },
    {
      "inputs": [
        {
          "internalType": "uint256",
          "name": "tokenId",
          "type": "uint256"
        },
        {
          "internalType": "address",
          "name": "claimant",
          "type": "address"
        }
      ],
      "name": "getRoyaltyInfo",
      "outputs": [
        {
          "internalType": "uint256",
          "name": "totalRevenue_",
          "type": "uint256"
        },
        {
          "internalType": "uint256",
          "name": "claimableAmount_",
          "type": "uint256"
        },
        {
          "internalType": "uint256",
          "name": "lastClaimed_",
          "type": "uint256"
        },
        {
          "internalType": "uint256",
          "name": "totalAccumulated_",
          "type": "uint256"
        }
      ],
      "stateMutability": "view",
      "type": "function"
    },
    {
      "inputs": [
        {
          "internalType": "uint256",
          "name": "",
          "type": "uint256"
        }
      ],
      "name": "ipAssets",
      "outputs": [
        {
          "internalType": "uint256",
          "name": "tokenId",
          "type": "uint256"
        },
        {
          "internalType": "address",
          "name": "owner",
          "type": "address"
        },
        {
          "internalType": "string",
          "name": "ipHash",
          "type": "string"
        },
        {
          "internalType": "string",
          "name": "metadata",
          "type": "string"
        },
        {
          "internalType": "bool",
          "name": "isEncrypted",
          "type": "bool"
        },
        {
          "internalType": "bool",
          "name": "isDisputed",
          "type": "bool"
        },
        {
          "internalType": "uint256",
          "name": "registrationDate",
          "type": "uint256"
        },
        {
          "internalType": "uint256",
          "name": "totalRevenue",
          "type": "uint256"
        },
        {
          "internalType": "uint256",
          "name": "royaltyTokens",
          "type": "uint256"
        }
      ],
      "stateMutability": "view",
      "type": "function"
    },
    {
      "inputs": [
        {
          "internalType": "address",
          "name": "owner",
          "type": "address"
        },
        {
          "internalType": "address",
          "name": "operator",
          "type": "address"
        }
      ],
      "name": "isApprovedForAll",
      "outputs": [
        {
          "internalType": "bool",
          "name": "",
          "type": "bool"
        }
      ],
      "stateMutability": "view",
      "type": "function"
    },
    {
      "inputs": [
        {
          "internalType": "uint256",
          "name": "",
          "type": "uint256"
        }
      ],
      "name": "licenses",
      "outputs": [
        {
          "internalType": "uint256",
          "name": "licenseId",
          "type": "uint256"
        },
        {
          "internalType": "address",
          "name": "licensee",
          "type": "address"
        },
        {
          "internalType": "uint256",
          "name": "tokenId",
          "type": "uint256"
        },
        {
          "internalType": "uint256",
          "name": "royaltyPercentage",
          "type": "uint256"
        },
        {
          "internalType": "uint256",
          "name": "duration",
          "type": "uint256"
        },
        {
          "internalType": "uint256",
          "name": "startDate",
          "type": "uint256"
        },
        {
          "internalType": "bool",
          "name": "isActive",
          "type": "bool"
        },
        {
          "internalType": "bool",
          "name": "commercialUse",
          "type": "bool"
        },
        {
          "internalType": "string",
          "name": "terms",
          "type": "string"
        }
      ],
      "stateMutability": "view",
      "type": "function"
    },
    {
      "inputs": [
        {
          "internalType": "uint256",
          "name": "tokenId",
          "type": "uint256"
        },
        {
          "internalType": "uint256",
          "name": "royaltyPercentage",
          "type": "uint256"
        },
        {
          "internalType": "uint256",
          "name": "duration",
          "type": "uint256"
        },
        {
          "internalType": "bool",
          "name": "commercialUse",
          "type": "bool"
        },
        {
          "internalType": "string",
          "name": "terms",
          "type": "string"
        }
      ],
      "name": "mintLicense",
      "outputs": [
        {
          "internalType": "uint256",
          "name": "",
          "type": "uint256"
        }
      ],
      "stateMutability": "nonpayable",
      "type": "function"
    },
    {
      "inputs": [],
      "name": "name",
      "outputs": [
        {
          "internalType": "string",
          "name": "",
          "type": "string"
        }
      ],
      "stateMutability": "view",
      "type": "function"
    },
    {
      "inputs": [],
      "name": "nextDisputeId",
      "outputs": [
        {
          "internalType": "uint256",
          "name": "",
          "type": "uint256"
        }
      ],
      "stateMutability": "view",
      "type": "function"
    },
    {
      "inputs": [],
      "name": "nextLicenseId",
      "outputs": [
        {
          "internalType": "uint256",
          "name": "",
          "type": "uint256"
        }
      ],
      "stateMutability": "view",
      "type": "function"
    },
    {
      "inputs": [],
      "name": "nextTokenId",
      "outputs": [
        {
          "internalType": "uint256",
          "name": "",
          "type": "uint256"
        }
      ],
      "stateMutability": "view",
      "type": "function"
    },
    {
      "inputs": [],
      "name": "owner",
      "outputs": [
        {
          "internalType": "address",
          "name": "",
          "type": "address"
        }
      ],
      "stateMutability": "view",
      "type": "function"
    },
    {
      "inputs": [
        {
          "internalType": "uint256",
          "name": "tokenId",
          "type": "uint256"
        }
      ],
      "name": "ownerOf",
      "outputs": [
        {
          "internalType": "address",
          "name": "",
          "type": "address"
        }
      ],
      "stateMutability": "view",
      "type": "function"
    },
    {
      "inputs": [
        {
          "internalType": "uint256",
          "name": "tokenId",
          "type": "uint256"
        }
      ],
      "name": "payRevenue",
      "outputs": [],
      "stateMutability": "payable",
      "type": "function"
    },
    {
      "inputs": [],
      "name": "platformFeeCollector",
      "outputs": [
        {
          "internalType": "address",
          "name": "",
          "type": "address"
        }
      ],
      "stateMutability": "view",
      "type": "function"
    },
    {
      "inputs": [],
      "name": "platformFeePercentage",
      "outputs": [
        {
          "internalType": "uint256",
          "name": "",
          "type": "uint256"
        }
      ],
      "stateMutability": "view",
      "type": "function"
    },
    {
      "inputs": [
        {
          "internalType": "uint256",
          "name": "tokenId",
          "type": "uint256"
        },
        {
          "internalType": "string",
          "name": "reason",
          "type": "string"
        }
      ],
      "name": "raiseDispute",
      "outputs": [],
      "stateMutability": "nonpayable",
      "type": "function"
    },
    {
      "inputs": [
        {
          "internalType": "string",
          "name": "ipHash",
          "type": "string"
        },
        {
          "internalType": "string",
          "name": "metadata",
          "type": "string"
        },
        {
          "internalType": "bool",
          "name": "isEncrypted",
          "type": "bool"
        }
      ],
      "name": "registerIP",
      "outputs": [
        {
          "internalType": "uint256",
          "name": "",
          "type": "uint256"
        }
      ],
      "stateMutability": "nonpayable",
      "type": "function"
    },
    {
      "inputs": [],
      "name": "registry",
      "outputs": [
        {
          "internalType": "contract ERC6551Registry",
          "name": "",
          "type": "address"
        }
      ],
      "stateMutability": "view",
      "type": "function"
    },
    {
      "inputs": [],
      "name": "renounceOwnership",
      "outputs": [],
      "stateMutability": "nonpayable",
      "type": "function"
    },
    {
      "inputs": [
        {
          "internalType": "uint256",
          "name": "disputeId",
          "type": "uint256"
        },
        {
          "internalType": "bool",
          "name": "resolved",
          "type": "bool"
        }
      ],
      "name": "resolveDispute",
      "outputs": [],
      "stateMutability": "nonpayable",
      "type": "function"
    },
    {
      "inputs": [
        {
          "internalType": "uint256",
          "name": "",
          "type": "uint256"
        }
      ],
      "name": "royaltyVaults",
      "outputs": [
        {
          "internalType": "uint256",
          "name": "totalAccumulated",
          "type": "uint256"
        },
        {
          "internalType": "uint256",
          "name": "lastClaimed",
          "type": "uint256"
        }
      ],
      "stateMutability": "view",
      "type": "function"
    },
    {
      "inputs": [
        {
          "internalType": "address",
          "name": "from",
          "type": "address"
        },
        {
          "internalType": "address",
          "name": "to",
          "type": "address"
        },
        {
          "internalType": "uint256",
          "name": "tokenId",
          "type": "uint256"
        }
      ],
      "name": "safeTransferFrom",
      "outputs": [],
      "stateMutability": "nonpayable",
      "type": "function"
    },
    {
      "inputs": [
        {
          "internalType": "address",
          "name": "from",
          "type": "address"
        },
        {
          "internalType": "address",
          "name": "to",
          "type": "address"
        },
        {
          "internalType": "uint256",
          "name": "tokenId",
          "type": "uint256"
        },
        {
          "internalType": "bytes",
          "name": "data",
          "type": "bytes"
        }
      ],
      "name": "safeTransferFrom",
      "outputs": [],
      "stateMutability": "nonpayable",
      "type": "function"
    },
    {
      "inputs": [
        {
          "internalType": "address",
          "name": "operator",
          "type": "address"
        },
        {
          "internalType": "bool",
          "name": "approved",
          "type": "bool"
        }
      ],
      "name": "setApprovalForAll",
      "outputs": [],
      "stateMutability": "nonpayable",
      "type": "function"
    },
    {
      "inputs": [
        {
          "internalType": "address",
          "name": "_platformFeeCollector",
          "type": "address"
        }
      ],
      "name": "setPlatformFeeCollector",
      "outputs": [],
      "stateMutability": "nonpayable",
      "type": "function"
    },
    {
      "inputs": [
        {
          "internalType": "uint256",
          "name": "_platformFeePercentage",
          "type": "uint256"
        }
      ],
      "name": "setPlatformFeePercentage",
      "outputs": [],
      "stateMutability": "nonpayable",
      "type": "function"
    },
    {
      "inputs": [
        {
          "internalType": "bytes4",
          "name": "interfaceId",
          "type": "bytes4"
        }
      ],
      "name": "supportsInterface",
      "outputs": [
        {
          "internalType": "bool",
          "name": "",
          "type": "bool"
        }
      ],
      "stateMutability": "view",
      "type": "function"
    },
    {
      "inputs": [],
      "name": "symbol",
      "outputs": [
        {
          "internalType": "string",
          "name": "",
          "type": "string"
        }
      ],
      "stateMutability": "view",
      "type": "function"
    },
    {
      "inputs": [
        {
          "internalType": "uint256",
          "name": "",
          "type": "uint256"
        },
        {
          "internalType": "uint256",
          "name": "",
          "type": "uint256"
        }
      ],
      "name": "tokenLicenses",
      "outputs": [
        {
          "internalType": "uint256",
          "name": "",
          "type": "uint256"
        }
      ],
      "stateMutability": "view",
      "type": "function"
    },
    {
      "inputs": [
        {
          "internalType": "uint256",
          "name": "tokenId",
          "type": "uint256"
        }
      ],
      "name": "tokenURI",
      "outputs": [
        {
          "internalType": "string",
          "name": "",
          "type": "string"
        }
      ],
      "stateMutability": "view",
      "type": "function"
    },
    {
      "inputs": [
        {
          "internalType": "address",
          "name": "from",
          "type": "address"
        },
        {
          "internalType": "address",
          "name": "to",
          "type": "address"
        },
        {
          "internalType": "uint256",
          "name": "tokenId",
          "type": "uint256"
        }
      ],
      "name": "transferFrom",
      "outputs": [],
      "stateMutability": "nonpayable",
      "type": "function"
    },
    {
      "inputs": [
        {
          "internalType": "uint256",
          "name": "tokenId",
          "type": "uint256"
        },
        {
          "internalType": "address",
          "name": "to",
          "type": "address"
        }
      ],
      "name": "transferIP",
      "outputs": [],
      "stateMutability": "nonpayable",
      "type": "function"
    },
    {
      "inputs": [
        {
          "internalType": "address",
          "name": "newOwner",
          "type": "address"
        }
      ],
      "name": "transferOwnership",
      "outputs": [],
      "stateMutability": "nonpayable",
      "type": "function"
    }
  ],
  "bytecode": "0x608060405260fa600c556001600d556001600e556001600f553480156200002557600080fd5b50604051620060b3380380620060b383398181016040528101906200004b9190620003ac565b336040518060400160405280600881526020017f4d6f6472656449500000000000000000000000000000000000000000000000008152506040518060400160405280600381526020017f4d4e5400000000000000000000000000000000000000000000000000000000008152508160009081620000c991906200068e565b508060019081620000db91906200068e565b505050600073ffffffffffffffffffffffffffffffffffffffff168173ffffffffffffffffffffffffffffffffffffffff1603620001535760006040517f1e4fbdf70000000000000000000000000000000000000000000000000000000081526004016200014a919062000786565b60405180910390fd5b62000164816200024160201b60201c565b50600160078190555083600860006101000a81548173ffffffffffffffffffffffffffffffffffffffff021916908373ffffffffffffffffffffffffffffffffffffffff16021790555082600960006101000a81548173ffffffffffffffffffffffffffffffffffffffff021916908373ffffffffffffffffffffffffffffffffffffffff16021790555081600a8190555080600b60006101000a81548173ffffffffffffffffffffffffffffffffffffffff021916908373ffffffffffffffffffffffffffffffffffffffff16021790555050505050620007a3565b6000600660009054906101000a900473ffffffffffffffffffffffffffffffffffffffff16905081600660006101000a81548173ffffffffffffffffffffffffffffffffffffffff021916908373ffffffffffffffffffffffffffffffffffffffff1602179055508173ffffffffffffffffffffffffffffffffffffffff168173ffffffffffffffffffffffffffffffffffffffff167f8be0079c531659141344cd1fd0a4f28419497f9722a3daafe3b4186f6b6457e060405160405180910390a35050565b600080fd5b600073ffffffffffffffffffffffffffffffffffffffff82169050919050565b600062000339826200030c565b9050919050565b6200034b816200032c565b81146200035757600080fd5b50565b6000815190506200036b8162000340565b92915050565b6000819050919050565b620003868162000371565b81146200039257600080fd5b50565b600081519050620003a6816200037b565b92915050565b60008060008060808587031215620003c957620003c862000307565b5b6000620003d9878288016200035a565b9450506020620003ec878288016200035a565b9350506040620003ff8782880162000395565b925050606062000412878288016200035a565b91505092959194509250565b600081519050919050565b7f4e487b7100000000000000000000000000000000000000000000000000000000600052604160045260246000fd5b7f4e487b7100000000000000000000000000000000000000000000000000000000600052602260045260246000fd5b60006002820490506001821680620004a057607f821691505b602082108103620004b657620004b562000458565b5b50919050565b60008190508160005260206000209050919050565b60006020601f8301049050919050565b600082821b905092915050565b600060088302620005207fffffffffffffffffffffffffffffffffffffffffffffffffffffffffffffffff82620004e1565b6200052c8683620004e1565b95508019841693508086168417925050509392505050565b6000819050919050565b60006200056f62000569620005638462000371565b62000544565b62000371565b9050919050565b6000819050919050565b6200058b836200054e565b620005a36200059a8262000576565b848454620004ee565b825550505050565b600090565b620005ba620005ab565b620005c781848462000580565b505050565b5b81811015620005ef57620005e3600082620005b0565b600181019050620005cd565b5050565b601f8211156200063e576200060881620004bc565b6200061384620004d1565b8101602085101562000623578190505b6200063b6200063285620004d1565b830182620005cc565b50505b505050565b600082821c905092915050565b6000620006636000198460080262000643565b1980831691505092915050565b60006200067e838362000650565b9150826002028217905092915050565b62000699826200041e565b67ffffffffffffffff811115620006b557620006b462000429565b5b620006c1825462000487565b620006ce828285620005f3565b600060209050601f831160018114620007065760008415620006f1578287015190505b620006fd858262000670565b8655506200076d565b601f1984166200071686620004bc565b60005b82811015620007405784890151825560018201915060208501945060208101905062000719565b868310156200076057848901516200075c601f89168262000650565b8355505b6001600288020188555050505b505050505050565b62000780816200032c565b82525050565b60006020820190506200079d600083018462000775565b92915050565b61590080620007b36000396000f3fe6080604052600436106102725760003560e01c806375794a3c1161014f578063b2dd1212116100c1578063cf7f8f791161007a578063cf7f8f79146109d4578063dfc90cf214610a14578063e985e9c514610a3d578063f2d5c14c14610a7a578063f2fde38b14610ab7578063f338456e14610ae057610272565b8063b2dd121214610897578063b88d4fde146108db578063b917246614610904578063c87b56dd14610941578063ca77df2c1461097e578063cdd78cfc146109a957610272565b80638da5cb5b116101135780638da5cb5b1461076b57806395d89b41146107965780639a8a0592146107c1578063a22cb465146107ec578063a8597e1314610815578063b1cefb4b1461085257610272565b806375794a3c146106985780637b103999146106c35780638333903e146106ee578063853a65f91461071757806386ad310f1461074257610272565b806334b25ee2116101e85780635aef573c116101ac5780635aef573c146105755780636352211e1461059e578063669c659e146105db5780636f3636651461060657806370a0823114610644578063715018a61461068157610272565b806334b25ee21461048b57806342842e0e146104b4578063486265c6146104dd578063492f471c14610508578063564a565d1461053357610272565b806311464fbe1161023a57806311464fbe14610370578063194e5b5c1461039b57806323b872dd146103d85780632d932598146104015780633248cdf81461042a578063337908451461044657610272565b806301ffc9a71461027757806306fdde03146102b4578063081812fc146102df578063095ea7b31461031c5780630db3993414610345575b600080fd5b34801561028357600080fd5b5061029e60048036038101906102999190613fdc565b610b24565b6040516102ab9190614024565b60405180910390f35b3480156102c057600080fd5b506102c9610c06565b6040516102d691906140cf565b60405180910390f35b3480156102eb57600080fd5b5061030660048036038101906103019190614127565b610c98565b6040516103139190614195565b60405180910390f35b34801561032857600080fd5b50610343600480360381019061033e91906141dc565b610cb4565b005b34801561035157600080fd5b5061035a610cca565b604051610367919061422b565b60405180910390f35b34801561037c57600080fd5b50610385610cd0565b6040516103929190614195565b60405180910390f35b3480156103a757600080fd5b506103c260048036038101906103bd9190614246565b610cf6565b6040516103cf919061422b565b60405180910390f35b3480156103e457600080fd5b506103ff60048036038101906103fa9190614286565b610d27565b005b34801561040d57600080fd5b50610428600480360381019061042391906142d9565b610e0b565b005b610444600480360381019061043f9190614127565b610fb2565b005b34801561045257600080fd5b5061046d60048036038101906104689190614127565b6114b5565b60405161048299989796959493929190614319565b60405180910390f35b34801561049757600080fd5b506104b260048036038101906104ad91906143d9565b6115c5565b005b3480156104c057600080fd5b506104db60048036038101906104d69190614286565b611715565b005b3480156104e957600080fd5b506104f2611735565b6040516104ff919061422b565b60405180910390f35b34801561051457600080fd5b5061051d61173c565b60405161052a919061422b565b60405180910390f35b34801561053f57600080fd5b5061055a60048036038101906105559190614127565b611742565b60405161056c96959493929190614419565b60405180910390f35b34801561058157600080fd5b5061059c600480360381019061059791906145b6565b611833565b005b3480156105aa57600080fd5b506105c560048036038101906105c09190614127565b611a99565b6040516105d29190614195565b60405180910390f35b3480156105e757600080fd5b506105f0611aab565b6040516105fd919061422b565b60405180910390f35b34801561061257600080fd5b5061062d60048036038101906106289190614127565b611ab2565b60405161063b929190614612565b60405180910390f35b34801561065057600080fd5b5061066b6004803603810190610666919061463b565b611ad6565b604051610678919061422b565b60405180910390f35b34801561068d57600080fd5b50610696611b90565b005b3480156106a457600080fd5b506106ad611ba4565b6040516106ba919061422b565b60405180910390f35b3480156106cf57600080fd5b506106d8611baa565b6040516106e591906146c7565b60405180910390f35b3480156106fa57600080fd5b5061071560048036038101906107109190614127565b611bd0565b005b34801561072357600080fd5b5061072c611c27565b6040516107399190614195565b60405180910390f35b34801561074e57600080fd5b5061076960048036038101906107649190614127565b611c4d565b005b34801561077757600080fd5b50610780611e4d565b60405161078d9190614195565b60405180910390f35b3480156107a257600080fd5b506107ab611e77565b6040516107b891906140cf565b60405180910390f35b3480156107cd57600080fd5b506107d6611f09565b6040516107e3919061422b565b60405180910390f35b3480156107f857600080fd5b50610813600480360381019061080e91906146e2565b611f0f565b005b34801561082157600080fd5b5061083c60048036038101906108379190614722565b611f25565b604051610849919061422b565b60405180910390f35b34801561085e57600080fd5b5061087960048036038101906108749190614127565b612318565b60405161088e999897969594939291906147b9565b60405180910390f35b3480156108a357600080fd5b506108be60048036038101906108b99190614127565b6124b0565b6040516108d2989796959493929190614854565b60405180910390f35b3480156108e757600080fd5b5061090260048036038101906108fd919061497a565b6125dd565b005b34801561091057600080fd5b5061092b600480360381019061092691906149fd565b6126c3565b604051610938919061422b565b60405180910390f35b34801561094d57600080fd5b5061096860048036038101906109639190614127565b612893565b60405161097591906140cf565b60405180910390f35b34801561098a57600080fd5b506109936129b2565b6040516109a0919061422b565b60405180910390f35b3480156109b557600080fd5b506109be6129b8565b6040516109cb919061422b565b60405180910390f35b3480156109e057600080fd5b506109fb60048036038101906109f691906142d9565b6129be565b604051610a0b9493929190614a88565b60405180910390f35b348015610a2057600080fd5b50610a3b6004803603810190610a36919061463b565b612a56565b005b348015610a4957600080fd5b50610a646004803603810190610a5f9190614acd565b612aa2565b604051610a719190614024565b60405180910390f35b348015610a8657600080fd5b50610aa16004803603810190610a9c9190614127565b612b36565b604051610aae9190614195565b60405180910390f35b348015610ac357600080fd5b50610ade6004803603810190610ad9919061463b565b612c08565b005b348015610aec57600080fd5b50610b076004803603810190610b029190614127565b612c8e565b604051610b1b989796959493929190614b0d565b60405180910390f35b60007f80ac58cd000000000000000000000000000000000000000000000000000000007bffffffffffffffffffffffffffffffffffffffffffffffffffffffff1916827bffffffffffffffffffffffffffffffffffffffffffffffffffffffff19161480610bef57507f5b5e139f000000000000000000000000000000000000000000000000000000007bffffffffffffffffffffffffffffffffffffffffffffffffffffffff1916827bffffffffffffffffffffffffffffffffffffffffffffffffffffffff1916145b80610bff5750610bfe82612e45565b5b9050919050565b606060008054610c1590614bc8565b80601f0160208091040260200160405190810160405280929190818152602001828054610c4190614bc8565b8015610c8e5780601f10610c6357610100808354040283529160200191610c8e565b820191906000526020600020905b815481529060010190602001808311610c7157829003601f168201915b5050505050905090565b6000610ca382612eaf565b50610cad82612f37565b9050919050565b610cc68282610cc1612f74565b612f7c565b5050565b600f5481565b600960009054906101000a900473ffffffffffffffffffffffffffffffffffffffff1681565b60146020528160005260406000208181548110610d1257600080fd5b90600052602060002001600091509150505481565b600073ffffffffffffffffffffffffffffffffffffffff168373ffffffffffffffffffffffffffffffffffffffff1614158015610d915750600073ffffffffffffffffffffffffffffffffffffffff168273ffffffffffffffffffffffffffffffffffffffff1614155b15610dfb576010600082815260200190815260200160002060040160019054906101000a900460ff1615610dfa576040517f08c379a0000000000000000000000000000000000000000000000000000000008152600401610df190614c45565b60405180910390fd5b5b610e06838383612f8e565b505050565b3373ffffffffffffffffffffffffffffffffffffffff16610e2b83611a99565b73ffffffffffffffffffffffffffffffffffffffff1614610e81576040517f08c379a0000000000000000000000000000000000000000000000000000000008152600401610e7890614cb1565b60405180910390fd5b6010600083815260200190815260200160002060040160019054906101000a900460ff1615610ee5576040517f08c379a0000000000000000000000000000000000000000000000000000000008152600401610edc90614c45565b60405180910390fd5b6000610ef083611a99565b9050610efd818385613090565b816010600085815260200190815260200160002060010160006101000a81548173ffffffffffffffffffffffffffffffffffffffff021916908373ffffffffffffffffffffffffffffffffffffffff1602179055508173ffffffffffffffffffffffffffffffffffffffff168173ffffffffffffffffffffffffffffffffffffffff16847f1757856899d0b1fbb2e309cb05cda166887b13df401307904c3042b4b759dc3960405160405180910390a4505050565b610fba6131fd565b600073ffffffffffffffffffffffffffffffffffffffff16610fdb82613243565b73ffffffffffffffffffffffffffffffffffffffff1603611031576040517f08c379a000000000000000000000000000000000000000000000000000000000815260040161102890614d1d565b60405180910390fd5b60003411611074576040517f08c379a000000000000000000000000000000000000000000000000000000000815260040161106b90614d89565b60405180910390fd5b6000601060008381526020019081526020016000209050600061109683611a99565b9050348260060160008282546110ac9190614dd8565b925050819055506000612710600c54346110c69190614e0c565b6110d09190614e7d565b9050600081346110e09190614eae565b90506000821180156111415750600073ffffffffffffffffffffffffffffffffffffffff16600b60009054906101000a900473ffffffffffffffffffffffffffffffffffffffff1673ffffffffffffffffffffffffffffffffffffffff1614155b15611216576000600b60009054906101000a900473ffffffffffffffffffffffffffffffffffffffff1673ffffffffffffffffffffffffffffffffffffffff168360405161118e90614f13565b60006040518083038185875af1925050503d80600081146111cb576040519150601f19603f3d011682016040523d82523d6000602084013e6111d0565b606091505b5050905080611214576040517f08c379a000000000000000000000000000000000000000000000000000000000815260040161120b90614f74565b60405180910390fd5b505b6000806014600088815260200190815260200160002080548060200260200160405190810160405280929190818152602001828054801561127657602002820191906000526020600020905b815481526020019060010190808311611262575b50505050509050600060136000898152602001908152602001600020905060005b82518110156113dc576000601160008584815181106112b9576112b8614f94565b5b6020026020010151815260200190815260200160002090508060060160009054906101000a900460ff1680156113015750806004015481600501546112fe9190614dd8565b42105b156113ce57600061271082600301548861131b9190614e0c565b6113259190614e7d565b9050808460020160008460010160009054906101000a900473ffffffffffffffffffffffffffffffffffffffff1673ffffffffffffffffffffffffffffffffffffffff1673ffffffffffffffffffffffffffffffffffffffff168152602001908152602001600020600082825461139c9190614dd8565b92505081905550808460000160008282546113b79190614dd8565b9250508190555080866113ca9190614dd8565b9550505b508080600101915050611297565b50600083856113eb9190614eae565b9050600081111561146a57808260020160008973ffffffffffffffffffffffffffffffffffffffff1673ffffffffffffffffffffffffffffffffffffffff16815260200190815260200160002060008282546114479190614dd8565b92505081905550808260000160008282546114629190614dd8565b925050819055505b887f7f4ebe5ca42340d9b48ed614d06fdfcdef473881621be7ff1ef4692c8d879e433460405161149a919061422b565b60405180910390a250505050505050506114b2613280565b50565b60116020528060005260406000206000915090508060000154908060010160009054906101000a900473ffffffffffffffffffffffffffffffffffffffff16908060020154908060030154908060040154908060050154908060060160009054906101000a900460ff16908060060160019054906101000a900460ff169080600701805461154290614bc8565b80601f016020809104026020016040519081016040528092919081815260200182805461156e90614bc8565b80156115bb5780601f10611590576101008083540402835291602001916115bb565b820191906000526020600020905b81548152906001019060200180831161159e57829003601f168201915b5050505050905089565b6115cd61328a565b6000601260008481526020019081526020016000209050600081600001540361162b576040517f08c379a00000000000000000000000000000000000000000000000000000000081526004016116229061500f565b60405180910390fd5b8060050160009054906101000a900460ff161561167d576040517f08c379a00000000000000000000000000000000000000000000000000000000081526004016116749061507b565b60405180910390fd5b818160050160006101000a81548160ff02191690831515021790555081156116d3576000601060008360010154815260200190815260200160002060040160016101000a81548160ff0219169083151502179055505b8060010154837fc84a77110774854ab237145b108e924962dbaa5191275eb044a6cb09621c4a94846040516117089190614024565b60405180910390a3505050565b611730838383604051806020016040528060008152506125dd565b505050565b62278d0081565b600e5481565b60126020528060005260406000206000915090508060000154908060010154908060020160009054906101000a900473ffffffffffffffffffffffffffffffffffffffff169080600301805461179790614bc8565b80601f01602080910402602001604051908101604052809291908181526020018280546117c390614bc8565b80156118105780601f106117e557610100808354040283529160200191611810565b820191906000526020600020905b8154815290600101906020018083116117f357829003601f168201915b5050505050908060040154908060050160009054906101000a900460ff16905086565b600073ffffffffffffffffffffffffffffffffffffffff1661185483613243565b73ffffffffffffffffffffffffffffffffffffffff16036118aa576040517f08c379a00000000000000000000000000000000000000000000000000000000081526004016118a190614d1d565b60405180910390fd5b6010600083815260200190815260200160002060040160019054906101000a900460ff161561190e576040517f08c379a0000000000000000000000000000000000000000000000000000000008152600401611905906150e7565b60405180910390fd5b6000600f600081548092919061192390615107565b9190505590506040518060c001604052808281526020018481526020013373ffffffffffffffffffffffffffffffffffffffff1681526020018381526020014281526020016000151581525060126000838152602001908152602001600020600082015181600001556020820151816001015560408201518160020160006101000a81548173ffffffffffffffffffffffffffffffffffffffff021916908373ffffffffffffffffffffffffffffffffffffffff16021790555060608201518160030190816119f291906152f1565b506080820151816004015560a08201518160050160006101000a81548160ff02191690831515021790555090505060016010600085815260200190815260200160002060040160016101000a81548160ff0219169083151502179055503373ffffffffffffffffffffffffffffffffffffffff1683827f83201991c75b30e493678d0543bdbd02d6a194a5a0dda31490a5fe09e9f0a22060405160405180910390a4505050565b6000611aa482612eaf565b9050919050565b6201518081565b60136020528060005260406000206000915090508060000154908060010154905082565b60008073ffffffffffffffffffffffffffffffffffffffff168273ffffffffffffffffffffffffffffffffffffffff1603611b495760006040517f89c62b64000000000000000000000000000000000000000000000000000000008152600401611b409190614195565b60405180910390fd5b600360008373ffffffffffffffffffffffffffffffffffffffff1673ffffffffffffffffffffffffffffffffffffffff168152602001908152602001600020549050919050565b611b9861328a565b611ba26000613311565b565b600d5481565b600860009054906101000a900473ffffffffffffffffffffffffffffffffffffffff1681565b611bd861328a565b612710811115611c1d576040517f08c379a0000000000000000000000000000000000000000000000000000000008152600401611c149061540f565b60405180910390fd5b80600c8190555050565b600b60009054906101000a900473ffffffffffffffffffffffffffffffffffffffff1681565b611c556131fd565b600060136000838152602001908152602001600020905060008160020160003373ffffffffffffffffffffffffffffffffffffffff1673ffffffffffffffffffffffffffffffffffffffff16815260200190815260200160002054905060008111611cf5576040517f08c379a0000000000000000000000000000000000000000000000000000000008152600401611cec9061547b565b60405180910390fd5b60008260020160003373ffffffffffffffffffffffffffffffffffffffff1673ffffffffffffffffffffffffffffffffffffffff1681526020019081526020016000208190555042826001018190555060003373ffffffffffffffffffffffffffffffffffffffff1682604051611d6b90614f13565b60006040518083038185875af1925050503d8060008114611da8576040519150601f19603f3d011682016040523d82523d6000602084013e611dad565b606091505b5050905080611df1576040517f08c379a0000000000000000000000000000000000000000000000000000000008152600401611de8906154e7565b60405180910390fd5b3373ffffffffffffffffffffffffffffffffffffffff16847e5ff6321fbc462bad97d71220393208f0286cd4482b70c04f592526a75656d384604051611e37919061422b565b60405180910390a3505050611e4a613280565b50565b6000600660009054906101000a900473ffffffffffffffffffffffffffffffffffffffff16905090565b606060018054611e8690614bc8565b80601f0160208091040260200160405190810160405280929190818152602001828054611eb290614bc8565b8015611eff5780601f10611ed457610100808354040283529160200191611eff565b820191906000526020600020905b815481529060010190602001808311611ee257829003601f168201915b5050505050905090565b600a5481565b611f21611f1a612f74565b83836133d7565b5050565b60008073ffffffffffffffffffffffffffffffffffffffff16611f4787613243565b73ffffffffffffffffffffffffffffffffffffffff1603611f9d576040517f08c379a0000000000000000000000000000000000000000000000000000000008152600401611f9490614d1d565b60405180910390fd5b3373ffffffffffffffffffffffffffffffffffffffff16611fbd87611a99565b73ffffffffffffffffffffffffffffffffffffffff1614612013576040517f08c379a000000000000000000000000000000000000000000000000000000000815260040161200a90615553565b60405180910390fd5b62015180841015612059576040517f08c379a0000000000000000000000000000000000000000000000000000000008152600401612050906155bf565b60405180910390fd5b60106000878152602001908152602001600020600701548511156120b2576040517f08c379a00000000000000000000000000000000000000000000000000000000081526004016120a99061562b565b60405180910390fd5b60026127106120c19190614e7d565b851115612103576040517f08c379a00000000000000000000000000000000000000000000000000000000081526004016120fa90615697565b60405180910390fd5b6000600e600081548092919061211890615107565b9190505590506040518061012001604052808281526020013373ffffffffffffffffffffffffffffffffffffffff168152602001888152602001878152602001868152602001428152602001600115158152602001851515815260200184815250601160008381526020019081526020016000206000820151816000015560208201518160010160006101000a81548173ffffffffffffffffffffffffffffffffffffffff021916908373ffffffffffffffffffffffffffffffffffffffff16021790555060408201518160020155606082015181600301556080820151816004015560a0820151816005015560c08201518160060160006101000a81548160ff02191690831515021790555060e08201518160060160016101000a81548160ff02191690831515021790555061010082015181600701908161225b91906152f1565b5090505060146000888152602001908152602001600020819080600181540180825580915050600190039060005260206000200160009091909190915055856010600089815260200190815260200160002060070160008282546122bf9190614eae565b925050819055503373ffffffffffffffffffffffffffffffffffffffff1687827ff3e06c5a2377f321895ab1f570aa3551aadcbe18d7fc962f31b9693634df630860405160405180910390a48091505095945050505050565b60106020528060005260406000206000915090508060000154908060010160009054906101000a900473ffffffffffffffffffffffffffffffffffffffff169080600201805461236790614bc8565b80601f016020809104026020016040519081016040528092919081815260200182805461239390614bc8565b80156123e05780601f106123b5576101008083540402835291602001916123e0565b820191906000526020600020905b8154815290600101906020018083116123c357829003601f168201915b5050505050908060030180546123f590614bc8565b80601f016020809104026020016040519081016040528092919081815260200182805461242190614bc8565b801561246e5780601f106124435761010080835404028352916020019161246e565b820191906000526020600020905b81548152906001019060200180831161245157829003601f168201915b5050505050908060040160009054906101000a900460ff16908060040160019054906101000a900460ff16908060050154908060060154908060070154905089565b600080600080600080600060606000601160008b815260200190815260200160002090508060010160009054906101000a900473ffffffffffffffffffffffffffffffffffffffff1681600201548260030154836004015484600501548560060160009054906101000a900460ff168660060160019054906101000a900460ff168760070180805461254190614bc8565b80601f016020809104026020016040519081016040528092919081815260200182805461256d90614bc8565b80156125ba5780601f1061258f576101008083540402835291602001916125ba565b820191906000526020600020905b81548152906001019060200180831161259d57829003601f168201915b505050505090509850985098509850985098509850985050919395975091939597565b600073ffffffffffffffffffffffffffffffffffffffff168473ffffffffffffffffffffffffffffffffffffffff16141580156126475750600073ffffffffffffffffffffffffffffffffffffffff168373ffffffffffffffffffffffffffffffffffffffff1614155b156126b1576010600083815260200190815260200160002060040160019054906101000a900460ff16156126b0576040517f08c379a00000000000000000000000000000000000000000000000000000000081526004016126a790614c45565b60405180910390fd5b5b6126bd84848484613546565b50505050565b600080600d60008154809291906126d990615107565b9190505590506040518061012001604052808281526020013373ffffffffffffffffffffffffffffffffffffffff168152602001868152602001858152602001841515815260200160001515815260200142815260200160008152602001612710815250601060008381526020019081526020016000206000820151816000015560208201518160010160006101000a81548173ffffffffffffffffffffffffffffffffffffffff021916908373ffffffffffffffffffffffffffffffffffffffff16021790555060408201518160020190816127b691906152f1565b5060608201518160030190816127cc91906152f1565b5060808201518160040160006101000a81548160ff02191690831515021790555060a08201518160040160016101000a81548160ff02191690831515021790555060c0820151816005015560e082015181600601556101008201518160070155905050612839338261356b565b3373ffffffffffffffffffffffffffffffffffffffff16817f725520a098b8482798bc7dbba42fdafe9a372e065d49b40f4f87da50cf476d258760405161288091906140cf565b60405180910390a3809150509392505050565b6060600073ffffffffffffffffffffffffffffffffffffffff166128b683613243565b73ffffffffffffffffffffffffffffffffffffffff160361290c576040517f08c379a000000000000000000000000000000000000000000000000000000000815260040161290390614d1d565b60405180910390fd5b60106000838152602001908152602001600020600301805461292d90614bc8565b80601f016020809104026020016040519081016040528092919081815260200182805461295990614bc8565b80156129a65780601f1061297b576101008083540402835291602001916129a6565b820191906000526020600020905b81548152906001019060200180831161298957829003601f168201915b50505050509050919050565b61271081565b600c5481565b6000806000806000601060008881526020019081526020016000209050600060136000898152602001908152602001600020905081600601548160020160008973ffffffffffffffffffffffffffffffffffffffff1673ffffffffffffffffffffffffffffffffffffffff16815260200190815260200160002054826001015483600001549550955095509550505092959194509250565b612a5e61328a565b80600b60006101000a81548173ffffffffffffffffffffffffffffffffffffffff021916908373ffffffffffffffffffffffffffffffffffffffff16021790555050565b6000600560008473ffffffffffffffffffffffffffffffffffffffff1673ffffffffffffffffffffffffffffffffffffffff16815260200190815260200160002060008373ffffffffffffffffffffffffffffffffffffffff1673ffffffffffffffffffffffffffffffffffffffff16815260200190815260200160002060009054906101000a900460ff16905092915050565b6000600860009054906101000a900473ffffffffffffffffffffffffffffffffffffffff1673ffffffffffffffffffffffffffffffffffffffff16635e9bc536600960009054906101000a900473ffffffffffffffffffffffffffffffffffffffff16600a54308660006040518663ffffffff1660e01b8152600401612bc09594939291906156f2565b602060405180830381865afa158015612bdd573d6000803e3d6000fd5b505050506040513d601f19601f82011682018060405250810190612c01919061575a565b9050919050565b612c1061328a565b600073ffffffffffffffffffffffffffffffffffffffff168173ffffffffffffffffffffffffffffffffffffffff1603612c825760006040517f1e4fbdf7000000000000000000000000000000000000000000000000000000008152600401612c799190614195565b60405180910390fd5b612c8b81613311565b50565b6000606080600080600080600080601060008b815260200190815260200160002090508060010160009054906101000a900473ffffffffffffffffffffffffffffffffffffffff1681600201826003018360040160009054906101000a900460ff168460040160019054906101000a900460ff16856005015486600601548760070154868054612d1d90614bc8565b80601f0160208091040260200160405190810160405280929190818152602001828054612d4990614bc8565b8015612d965780601f10612d6b57610100808354040283529160200191612d96565b820191906000526020600020905b815481529060010190602001808311612d7957829003601f168201915b50505050509650858054612da990614bc8565b80601f0160208091040260200160405190810160405280929190818152602001828054612dd590614bc8565b8015612e225780601f10612df757610100808354040283529160200191612e22565b820191906000526020600020905b815481529060010190602001808311612e0557829003601f168201915b505050505095509850985098509850985098509850985050919395975091939597565b60007f01ffc9a7000000000000000000000000000000000000000000000000000000007bffffffffffffffffffffffffffffffffffffffffffffffffffffffff1916827bffffffffffffffffffffffffffffffffffffffffffffffffffffffff1916149050919050565b600080612ebb83613243565b9050600073ffffffffffffffffffffffffffffffffffffffff168173ffffffffffffffffffffffffffffffffffffffff1603612f2e57826040517f7e273289000000000000000000000000000000000000000000000000000000008152600401612f25919061422b565b60405180910390fd5b80915050919050565b60006004600083815260200190815260200160002060009054906101000a900473ffffffffffffffffffffffffffffffffffffffff169050919050565b600033905090565b612f898383836001613664565b505050565b600073ffffffffffffffffffffffffffffffffffffffff168273ffffffffffffffffffffffffffffffffffffffff16036130005760006040517f64a0ae92000000000000000000000000000000000000000000000000000000008152600401612ff79190614195565b60405180910390fd5b6000613014838361300f612f74565b613829565b90508373ffffffffffffffffffffffffffffffffffffffff168173ffffffffffffffffffffffffffffffffffffffff161461308a578382826040517f64283d7b00000000000000000000000000000000000000000000000000000000815260040161308193929190615787565b60405180910390fd5b50505050565b600073ffffffffffffffffffffffffffffffffffffffff168273ffffffffffffffffffffffffffffffffffffffff16036131025760006040517f64a0ae920000000000000000000000000000000000000000000000000000000081526004016130f99190614195565b60405180910390fd5b600061311083836000613829565b9050600073ffffffffffffffffffffffffffffffffffffffff168173ffffffffffffffffffffffffffffffffffffffff160361318357816040517f7e27328900000000000000000000000000000000000000000000000000000000815260040161317a919061422b565b60405180910390fd5b8373ffffffffffffffffffffffffffffffffffffffff168173ffffffffffffffffffffffffffffffffffffffff16146131f7578382826040517f64283d7b0000000000000000000000000000000000000000000000000000000081526004016131ee93929190615787565b60405180910390fd5b50505050565b600260075403613239576040517f3ee5aeb500000000000000000000000000000000000000000000000000000000815260040160405180910390fd5b6002600781905550565b60006002600083815260200190815260200160002060009054906101000a900473ffffffffffffffffffffffffffffffffffffffff169050919050565b6001600781905550565b613292612f74565b73ffffffffffffffffffffffffffffffffffffffff166132b0611e4d565b73ffffffffffffffffffffffffffffffffffffffff161461330f576132d3612f74565b6040517f118cdaa70000000000000000000000000000000000000000000000000000000081526004016133069190614195565b60405180910390fd5b565b6000600660009054906101000a900473ffffffffffffffffffffffffffffffffffffffff16905081600660006101000a81548173ffffffffffffffffffffffffffffffffffffffff021916908373ffffffffffffffffffffffffffffffffffffffff1602179055508173ffffffffffffffffffffffffffffffffffffffff168173ffffffffffffffffffffffffffffffffffffffff167f8be0079c531659141344cd1fd0a4f28419497f9722a3daafe3b4186f6b6457e060405160405180910390a35050565b600073ffffffffffffffffffffffffffffffffffffffff168273ffffffffffffffffffffffffffffffffffffffff160361344857816040517f5b08ba1800000000000000000000000000000000000000000000000000000000815260040161343f9190614195565b60405180910390fd5b80600560008573ffffffffffffffffffffffffffffffffffffffff1673ffffffffffffffffffffffffffffffffffffffff16815260200190815260200160002060008473ffffffffffffffffffffffffffffffffffffffff1673ffffffffffffffffffffffffffffffffffffffff16815260200190815260200160002060006101000a81548160ff0219169083151502179055508173ffffffffffffffffffffffffffffffffffffffff168373ffffffffffffffffffffffffffffffffffffffff167f17307eab39ab6107e8899845ad3d59bd9653f200f220920489ca2b5937696c31836040516135399190614024565b60405180910390a3505050565b613551848484610d27565b61356561355c612f74565b85858585613a20565b50505050565b600073ffffffffffffffffffffffffffffffffffffffff168273ffffffffffffffffffffffffffffffffffffffff16036135dd5760006040517f64a0ae920000000000000000000000000000000000000000000000000000000081526004016135d49190614195565b60405180910390fd5b60006135eb83836000613829565b9050600073ffffffffffffffffffffffffffffffffffffffff168173ffffffffffffffffffffffffffffffffffffffff161461365f5760006040517f73c6ac6e0000000000000000000000000000000000000000000000000000000081526004016136569190614195565b60405180910390fd5b505050565b808061369d5750600073ffffffffffffffffffffffffffffffffffffffff168273ffffffffffffffffffffffffffffffffffffffff1614155b156137d15760006136ad84612eaf565b9050600073ffffffffffffffffffffffffffffffffffffffff168373ffffffffffffffffffffffffffffffffffffffff161415801561371857508273ffffffffffffffffffffffffffffffffffffffff168173ffffffffffffffffffffffffffffffffffffffff1614155b801561372b57506137298184612aa2565b155b1561376d57826040517fa9fbf51f0000000000000000000000000000000000000000000000000000000081526004016137649190614195565b60405180910390fd5b81156137cf57838573ffffffffffffffffffffffffffffffffffffffff168273ffffffffffffffffffffffffffffffffffffffff167f8c5be1e5ebec7d5bd14f71427d1e84f3dd0314c0f7b2291e5b200ac8c7c3b92560405160405180910390a45b505b836004600085815260200190815260200160002060006101000a81548173ffffffffffffffffffffffffffffffffffffffff021916908373ffffffffffffffffffffffffffffffffffffffff16021790555050505050565b60008061383584613243565b90506000613844868686613bd1565b90506000601060008781526020019081526020016000206000015414613a1457600073ffffffffffffffffffffffffffffffffffffffff168273ffffffffffffffffffffffffffffffffffffffff16141580156138ce5750600073ffffffffffffffffffffffffffffffffffffffff168673ffffffffffffffffffffffffffffffffffffffff1614155b1561398857856010600087815260200190815260200160002060010160006101000a81548173ffffffffffffffffffffffffffffffffffffffff021916908373ffffffffffffffffffffffffffffffffffffffff1602179055508573ffffffffffffffffffffffffffffffffffffffff168273ffffffffffffffffffffffffffffffffffffffff16867f1757856899d0b1fbb2e309cb05cda166887b13df401307904c3042b4b759dc3960405160405180910390a4613a13565b600073ffffffffffffffffffffffffffffffffffffffff168673ffffffffffffffffffffffffffffffffffffffff1614613a1257856010600087815260200190815260200160002060010160006101000a81548173ffffffffffffffffffffffffffffffffffffffff021916908373ffffffffffffffffffffffffffffffffffffffff1602179055505b5b5b80925050509392505050565b60008373ffffffffffffffffffffffffffffffffffffffff163b1115613bca578273ffffffffffffffffffffffffffffffffffffffff1663150b7a02868685856040518563ffffffff1660e01b8152600401613a7f9493929190615813565b6020604051808303816000875af1925050508015613abb57506040513d601f19601f82011682018060405250810190613ab89190615874565b60015b613b3f573d8060008114613aeb576040519150601f19603f3d011682016040523d82523d6000602084013e613af0565b606091505b506000815103613b3757836040517f64a0ae92000000000000000000000000000000000000000000000000000000008152600401613b2e9190614195565b60405180910390fd5b805160208201fd5b63150b7a0260e01b7bffffffffffffffffffffffffffffffffffffffffffffffffffffffff1916817bffffffffffffffffffffffffffffffffffffffffffffffffffffffff191614613bc857836040517f64a0ae92000000000000000000000000000000000000000000000000000000008152600401613bbf9190614195565b60405180910390fd5b505b5050505050565b600080613bdd84613243565b9050600073ffffffffffffffffffffffffffffffffffffffff168373ffffffffffffffffffffffffffffffffffffffff1614613c1f57613c1e818486613deb565b5b600073ffffffffffffffffffffffffffffffffffffffff168173ffffffffffffffffffffffffffffffffffffffff1614613cb057613c61600085600080613664565b6001600360008373ffffffffffffffffffffffffffffffffffffffff1673ffffffffffffffffffffffffffffffffffffffff168152602001908152602001600020600082825403925050819055505b600073ffffffffffffffffffffffffffffffffffffffff168573ffffffffffffffffffffffffffffffffffffffff1614613d33576001600360008773ffffffffffffffffffffffffffffffffffffffff1673ffffffffffffffffffffffffffffffffffffffff168152602001908152602001600020600082825401925050819055505b846002600086815260200190815260200160002060006101000a81548173ffffffffffffffffffffffffffffffffffffffff021916908373ffffffffffffffffffffffffffffffffffffffff160217905550838573ffffffffffffffffffffffffffffffffffffffff168273ffffffffffffffffffffffffffffffffffffffff167fddf252ad1be2c89b69c2b068fc378daa952ba7f163c4a11628f55a4df523b3ef60405160405180910390a4809150509392505050565b613df6838383613eaf565b613eaa57600073ffffffffffffffffffffffffffffffffffffffff168373ffffffffffffffffffffffffffffffffffffffff1603613e6b57806040517f7e273289000000000000000000000000000000000000000000000000000000008152600401613e62919061422b565b60405180910390fd5b81816040517f177e802f000000000000000000000000000000000000000000000000000000008152600401613ea19291906158a1565b60405180910390fd5b505050565b60008073ffffffffffffffffffffffffffffffffffffffff168373ffffffffffffffffffffffffffffffffffffffff1614158015613f6757508273ffffffffffffffffffffffffffffffffffffffff168473ffffffffffffffffffffffffffffffffffffffff161480613f285750613f278484612aa2565b5b80613f6657508273ffffffffffffffffffffffffffffffffffffffff16613f4e83612f37565b73ffffffffffffffffffffffffffffffffffffffff16145b5b90509392505050565b6000604051905090565b600080fd5b600080fd5b60007fffffffff0000000000000000000000000000000000000000000000000000000082169050919050565b613fb981613f84565b8114613fc457600080fd5b50565b600081359050613fd681613fb0565b92915050565b600060208284031215613ff257613ff1613f7a565b5b600061400084828501613fc7565b91505092915050565b60008115159050919050565b61401e81614009565b82525050565b60006020820190506140396000830184614015565b92915050565b600081519050919050565b600082825260208201905092915050565b60005b8381101561407957808201518184015260208101905061405e565b60008484015250505050565b6000601f19601f8301169050919050565b60006140a18261403f565b6140ab818561404a565b93506140bb81856020860161405b565b6140c481614085565b840191505092915050565b600060208201905081810360008301526140e98184614096565b905092915050565b6000819050919050565b614104816140f1565b811461410f57600080fd5b50565b600081359050614121816140fb565b92915050565b60006020828403121561413d5761413c613f7a565b5b600061414b84828501614112565b91505092915050565b600073ffffffffffffffffffffffffffffffffffffffff82169050919050565b600061417f82614154565b9050919050565b61418f81614174565b82525050565b60006020820190506141aa6000830184614186565b92915050565b6141b981614174565b81146141c457600080fd5b50565b6000813590506141d6816141b0565b92915050565b600080604083850312156141f3576141f2613f7a565b5b6000614201858286016141c7565b925050602061421285828601614112565b9150509250929050565b614225816140f1565b82525050565b6000602082019050614240600083018461421c565b92915050565b6000806040838503121561425d5761425c613f7a565b5b600061426b85828601614112565b925050602061427c85828601614112565b9150509250929050565b60008060006060848603121561429f5761429e613f7a565b5b60006142ad868287016141c7565b93505060206142be868287016141c7565b92505060406142cf86828701614112565b9150509250925092565b600080604083850312156142f0576142ef613f7a565b5b60006142fe85828601614112565b925050602061430f858286016141c7565b9150509250929050565b60006101208201905061432f600083018c61421c565b61433c602083018b614186565b614349604083018a61421c565b614356606083018961421c565b614363608083018861421c565b61437060a083018761421c565b61437d60c0830186614015565b61438a60e0830185614015565b81810361010083015261439d8184614096565b90509a9950505050505050505050565b6143b681614009565b81146143c157600080fd5b50565b6000813590506143d3816143ad565b92915050565b600080604083850312156143f0576143ef613f7a565b5b60006143fe85828601614112565b925050602061440f858286016143c4565b9150509250929050565b600060c08201905061442e600083018961421c565b61443b602083018861421c565b6144486040830187614186565b818103606083015261445a8186614096565b9050614469608083018561421c565b61447660a0830184614015565b979650505050505050565b600080fd5b600080fd5b7f4e487b7100000000000000000000000000000000000000000000000000000000600052604160045260246000fd5b6144c382614085565b810181811067ffffffffffffffff821117156144e2576144e161448b565b5b80604052505050565b60006144f5613f70565b905061450182826144ba565b919050565b600067ffffffffffffffff8211156145215761452061448b565b5b61452a82614085565b9050602081019050919050565b82818337600083830152505050565b600061455961455484614506565b6144eb565b90508281526020810184848401111561457557614574614486565b5b614580848285614537565b509392505050565b600082601f83011261459d5761459c614481565b5b81356145ad848260208601614546565b91505092915050565b600080604083850312156145cd576145cc613f7a565b5b60006145db85828601614112565b925050602083013567ffffffffffffffff8111156145fc576145fb613f7f565b5b61460885828601614588565b9150509250929050565b6000604082019050614627600083018561421c565b614634602083018461421c565b9392505050565b60006020828403121561465157614650613f7a565b5b600061465f848285016141c7565b91505092915050565b6000819050919050565b600061468d61468861468384614154565b614668565b614154565b9050919050565b600061469f82614672565b9050919050565b60006146b182614694565b9050919050565b6146c1816146a6565b82525050565b60006020820190506146dc60008301846146b8565b92915050565b600080604083850312156146f9576146f8613f7a565b5b6000614707858286016141c7565b9250506020614718858286016143c4565b9150509250929050565b600080600080600060a0868803121561473e5761473d613f7a565b5b600061474c88828901614112565b955050602061475d88828901614112565b945050604061476e88828901614112565b935050606061477f888289016143c4565b925050608086013567ffffffffffffffff8111156147a05761479f613f7f565b5b6147ac88828901614588565b9150509295509295909350565b6000610120820190506147cf600083018c61421c565b6147dc602083018b614186565b81810360408301526147ee818a614096565b905081810360608301526148028189614096565b90506148116080830188614015565b61481e60a0830187614015565b61482b60c083018661421c565b61483860e083018561421c565b61484661010083018461421c565b9a9950505050505050505050565b60006101008201905061486a600083018b614186565b614877602083018a61421c565b614884604083018961421c565b614891606083018861421c565b61489e608083018761421c565b6148ab60a0830186614015565b6148b860c0830185614015565b81810360e08301526148ca8184614096565b90509998505050505050505050565b600067ffffffffffffffff8211156148f4576148f361448b565b5b6148fd82614085565b9050602081019050919050565b600061491d614918846148d9565b6144eb565b90508281526020810184848401111561493957614938614486565b5b614944848285614537565b509392505050565b600082601f83011261496157614960614481565b5b813561497184826020860161490a565b91505092915050565b6000806000806080858703121561499457614993613f7a565b5b60006149a2878288016141c7565b94505060206149b3878288016141c7565b93505060406149c487828801614112565b925050606085013567ffffffffffffffff8111156149e5576149e4613f7f565b5b6149f18782880161494c565b91505092959194509250565b600080600060608486031215614a1657614a15613f7a565b5b600084013567ffffffffffffffff811115614a3457614a33613f7f565b5b614a4086828701614588565b935050602084013567ffffffffffffffff811115614a6157614a60613f7f565b5b614a6d86828701614588565b9250506040614a7e868287016143c4565b9150509250925092565b6000608082019050614a9d600083018761421c565b614aaa602083018661421c565b614ab7604083018561421c565b614ac4606083018461421c565b95945050505050565b60008060408385031215614ae457614ae3613f7a565b5b6000614af2858286016141c7565b9250506020614b03858286016141c7565b9150509250929050565b600061010082019050614b23600083018b614186565b8181036020830152614b35818a614096565b90508181036040830152614b498189614096565b9050614b586060830188614015565b614b656080830187614015565b614b7260a083018661421c565b614b7f60c083018561421c565b614b8c60e083018461421c565b9998505050505050505050565b7f4e487b7100000000000000000000000000000000000000000000000000000000600052602260045260246000fd5b60006002820490506001821680614be057607f821691505b602082108103614bf357614bf2614b99565b5b50919050565b7f43616e6e6f74207472616e736665722064697370757465642049500000000000600082015250565b6000614c2f601b8361404a565b9150614c3a82614bf9565b602082019050919050565b60006020820190508181036000830152614c5e81614c22565b9050919050565b7f4e6f7420746865206f776e657200000000000000000000000000000000000000600082015250565b6000614c9b600d8361404a565b9150614ca682614c65565b602082019050919050565b60006020820190508181036000830152614cca81614c8e565b9050919050565b7f546f6b656e20646f6573206e6f74206578697374000000000000000000000000600082015250565b6000614d0760148361404a565b9150614d1282614cd1565b602082019050919050565b60006020820190508181036000830152614d3681614cfa565b9050919050565b7f5061796d656e74206d7573742062652067726561746572207468616e20300000600082015250565b6000614d73601e8361404a565b9150614d7e82614d3d565b602082019050919050565b60006020820190508181036000830152614da281614d66565b9050919050565b7f4e487b7100000000000000000000000000000000000000000000000000000000600052601160045260246000fd5b6000614de3826140f1565b9150614dee836140f1565b9250828201905080821115614e0657614e05614da9565b5b92915050565b6000614e17826140f1565b9150614e22836140f1565b9250828202614e30816140f1565b91508282048414831517614e4757614e46614da9565b5b5092915050565b7f4e487b7100000000000000000000000000000000000000000000000000000000600052601260045260246000fd5b6000614e88826140f1565b9150614e93836140f1565b925082614ea357614ea2614e4e565b5b828204905092915050565b6000614eb9826140f1565b9150614ec4836140f1565b9250828203905081811115614edc57614edb614da9565b5b92915050565b600081905092915050565b50565b6000614efd600083614ee2565b9150614f0882614eed565b600082019050919050565b6000614f1e82614ef0565b9150819050919050565b7f506c6174666f726d20666565207472616e73666572206661696c656400000000600082015250565b6000614f5e601c8361404a565b9150614f6982614f28565b602082019050919050565b60006020820190508181036000830152614f8d81614f51565b9050919050565b7f4e487b7100000000000000000000000000000000000000000000000000000000600052603260045260246000fd5b7f4469737075746520646f6573206e6f7420657869737400000000000000000000600082015250565b6000614ff960168361404a565b915061500482614fc3565b602082019050919050565b6000602082019050818103600083015261502881614fec565b9050919050565b7f4469737075746520616c7265616479207265736f6c7665640000000000000000600082015250565b600061506560188361404a565b91506150708261502f565b602082019050919050565b6000602082019050818103600083015261509481615058565b9050919050565b7f495020616c726561647920646973707574656400000000000000000000000000600082015250565b60006150d160138361404a565b91506150dc8261509b565b602082019050919050565b60006020820190508181036000830152615100816150c4565b9050919050565b6000615112826140f1565b91507fffffffffffffffffffffffffffffffffffffffffffffffffffffffffffffffff820361514457615143614da9565b5b600182019050919050565b60008190508160005260206000209050919050565b60006020601f8301049050919050565b600082821b905092915050565b6000600883026151b17fffffffffffffffffffffffffffffffffffffffffffffffffffffffffffffffff82615174565b6151bb8683615174565b95508019841693508086168417925050509392505050565b60006151ee6151e96151e4846140f1565b614668565b6140f1565b9050919050565b6000819050919050565b615208836151d3565b61521c615214826151f5565b848454615181565b825550505050565b600090565b615231615224565b61523c8184846151ff565b505050565b5b8181101561526057615255600082615229565b600181019050615242565b5050565b601f8211156152a5576152768161514f565b61527f84615164565b8101602085101561528e578190505b6152a261529a85615164565b830182615241565b50505b505050565b600082821c905092915050565b60006152c8600019846008026152aa565b1980831691505092915050565b60006152e183836152b7565b9150826002028217905092915050565b6152fa8261403f565b67ffffffffffffffff8111156153135761531261448b565b5b61531d8254614bc8565b615328828285615264565b600060209050601f83116001811461535b5760008415615349578287015190505b61535385826152d5565b8655506153bb565b601f1984166153698661514f565b60005b828110156153915784890151825560018201915060208501945060208101905061536c565b868310156153ae57848901516153aa601f8916826152b7565b8355505b6001600288020188555050505b505050505050565b7f46656520746f6f20686967680000000000000000000000000000000000000000600082015250565b60006153f9600c8361404a565b9150615404826153c3565b602082019050919050565b60006020820190508181036000830152615428816153ec565b9050919050565b7f4e6f20726f79616c7469657320746f20636c61696d0000000000000000000000600082015250565b600061546560158361404a565b91506154708261542f565b602082019050919050565b6000602082019050818103600083015261549481615458565b9050919050565b7f526f79616c7479207472616e73666572206661696c6564000000000000000000600082015250565b60006154d160178361404a565b91506154dc8261549b565b602082019050919050565b60006020820190508181036000830152615500816154c4565b9050919050565b7f4f6e6c79204950206f776e65722063616e206d696e74206c6963656e73657300600082015250565b600061553d601f8361404a565b915061554882615507565b602082019050919050565b6000602082019050818103600083015261556c81615530565b9050919050565b7f4475726174696f6e20746f6f2073686f72740000000000000000000000000000600082015250565b60006155a960128361404a565b91506155b482615573565b602082019050919050565b600060208201905081810360008301526155d88161559c565b9050919050565b7f496e76616c696420726f79616c74792070657263656e74616765000000000000600082015250565b6000615615601a8361404a565b9150615620826155df565b602082019050919050565b6000602082019050818103600083015261564481615608565b9050919050565b7f526f79616c74792063616e6e6f74206578636565642035302500000000000000600082015250565b600061568160198361404a565b915061568c8261564b565b602082019050919050565b600060208201905081810360008301526156b081615674565b9050919050565b6000819050919050565b60006156dc6156d76156d2846156b7565b614668565b6140f1565b9050919050565b6156ec816156c1565b82525050565b600060a0820190506157076000830188614186565b615714602083018761421c565b6157216040830186614186565b61572e606083018561421c565b61573b60808301846156e3565b9695505050505050565b600081519050615754816141b0565b92915050565b6000602082840312156157705761576f613f7a565b5b600061577e84828501615745565b91505092915050565b600060608201905061579c6000830186614186565b6157a9602083018561421c565b6157b66040830184614186565b949350505050565b600081519050919050565b600082825260208201905092915050565b60006157e5826157be565b6157ef81856157c9565b93506157ff81856020860161405b565b61580881614085565b840191505092915050565b60006080820190506158286000830187614186565b6158356020830186614186565b615842604083018561421c565b818103606083015261585481846157da565b905095945050505050565b60008151905061586e81613fb0565b92915050565b60006020828403121561588a57615889613f7a565b5b60006158988482850161585f565b91505092915050565b60006040820190506158b66000830185614186565b6158c3602083018461421c565b939250505056fea2646970667358221220492ae80bb3200c91be788e1b73577c03006aab9d5c2f0317a7da497705895a5564736f6c63430008180033",
  "linkReferences": {},
  "deployedLinkReferences": {}
}