{
  "_format": "hh-sol-artifact-1",
  "contractName": "ModredIP",
  "sourceName": "contracts/ModredIP.sol",
  "abi": [
    {
      "inputs": [
        {
          "internalType": "address",
          "name": "_registry",
          "type": "address"
        },
        {
          "internalType": "address",
          "name": "_accountImplementation",
          "type": "address"
        },
        {
          "internalType": "uint256",
          "name": "_chainId",
          "type": "uint256"
        },
        {
          "internalType": "address",
          "name": "_platformFeeCollector",
          "type": "address"
        }
      ],
      "stateMutability": "nonpayable",
      "type": "constructor"
    },
    {
      "inputs": [
        {
          "internalType": "address",
          "name": "sender",
          "type": "address"
        },
        {
          "internalType": "uint256",
          "name": "tokenId",
          "type": "uint256"
        },
        {
          "internalType": "address",
          "name": "owner",
          "type": "address"
        }
      ],
      "name": "ERC721IncorrectOwner",
      "type": "error"
    },
    {
      "inputs": [
        {
          "internalType": "address",
          "name": "operator",
          "type": "address"
        },
        {
          "internalType": "uint256",
          "name": "tokenId",
          "type": "uint256"
        }
      ],
      "name": "ERC721InsufficientApproval",
      "type": "error"
    },
    {
      "inputs": [
        {
          "internalType": "address",
          "name": "approver",
          "type": "address"
        }
      ],
      "name": "ERC721InvalidApprover",
      "type": "error"
    },
    {
      "inputs": [
        {
          "internalType": "address",
          "name": "operator",
          "type": "address"
        }
      ],
      "name": "ERC721InvalidOperator",
      "type": "error"
    },
    {
      "inputs": [
        {
          "internalType": "address",
          "name": "owner",
          "type": "address"
        }
      ],
      "name": "ERC721InvalidOwner",
      "type": "error"
    },
    {
      "inputs": [
        {
          "internalType": "address",
          "name": "receiver",
          "type": "address"
        }
      ],
      "name": "ERC721InvalidReceiver",
      "type": "error"
    },
    {
      "inputs": [
        {
          "internalType": "address",
          "name": "sender",
          "type": "address"
        }
      ],
      "name": "ERC721InvalidSender",
      "type": "error"
    },
    {
      "inputs": [
        {
          "internalType": "uint256",
          "name": "tokenId",
          "type": "uint256"
        }
      ],
      "name": "ERC721NonexistentToken",
      "type": "error"
    },
    {
      "inputs": [
        {
          "internalType": "address",
          "name": "owner",
          "type": "address"
        }
      ],
      "name": "OwnableInvalidOwner",
      "type": "error"
    },
    {
      "inputs": [
        {
          "internalType": "address",
          "name": "account",
          "type": "address"
        }
      ],
      "name": "OwnableUnauthorizedAccount",
      "type": "error"
    },
    {
      "inputs": [],
      "name": "ReentrancyGuardReentrantCall",
      "type": "error"
    },
    {
      "anonymous": false,
      "inputs": [
        {
          "indexed": true,
          "internalType": "address",
          "name": "owner",
          "type": "address"
        },
        {
          "indexed": true,
          "internalType": "address",
          "name": "approved",
          "type": "address"
        },
        {
          "indexed": true,
          "internalType": "uint256",
          "name": "tokenId",
          "type": "uint256"
        }
      ],
      "name": "Approval",
      "type": "event"
    },
    {
      "anonymous": false,
      "inputs": [
        {
          "indexed": true,
          "internalType": "address",
          "name": "owner",
          "type": "address"
        },
        {
          "indexed": true,
          "internalType": "address",
          "name": "operator",
          "type": "address"
        },
        {
          "indexed": false,
          "internalType": "bool",
          "name": "approved",
          "type": "bool"
        }
      ],
      "name": "ApprovalForAll",
      "type": "event"
    },
    {
      "anonymous": false,
      "inputs": [
        {
          "indexed": true,
          "internalType": "uint256",
          "name": "disputeId",
          "type": "uint256"
        },
        {
          "indexed": true,
          "internalType": "uint256",
          "name": "tokenId",
          "type": "uint256"
        },
        {
          "indexed": true,
          "internalType": "address",
          "name": "disputer",
          "type": "address"
        }
      ],
      "name": "DisputeRaised",
      "type": "event"
    },
    {
      "anonymous": false,
      "inputs": [
        {
          "indexed": true,
          "internalType": "uint256",
          "name": "disputeId",
          "type": "uint256"
        },
        {
          "indexed": true,
          "internalType": "uint256",
          "name": "tokenId",
          "type": "uint256"
        },
        {
          "indexed": false,
          "internalType": "bool",
          "name": "resolved",
          "type": "bool"
        }
      ],
      "name": "DisputeResolved",
      "type": "event"
    },
    {
      "anonymous": false,
      "inputs": [
        {
          "indexed": true,
          "internalType": "uint256",
          "name": "tokenId",
          "type": "uint256"
        },
        {
          "indexed": true,
          "internalType": "address",
          "name": "owner",
          "type": "address"
        },
        {
          "indexed": false,
          "internalType": "string",
          "name": "ipHash",
          "type": "string"
        }
      ],
      "name": "IPRegistered",
      "type": "event"
    },
    {
      "anonymous": false,
      "inputs": [
        {
          "indexed": true,
          "internalType": "uint256",
          "name": "tokenId",
          "type": "uint256"
        },
        {
          "indexed": true,
          "internalType": "address",
          "name": "from",
          "type": "address"
        },
        {
          "indexed": true,
          "internalType": "address",
          "name": "to",
          "type": "address"
        }
      ],
      "name": "IPTransferred",
      "type": "event"
    },
    {
      "anonymous": false,
      "inputs": [
        {
          "indexed": true,
          "internalType": "uint256",
          "name": "licenseId",
          "type": "uint256"
        },
        {
          "indexed": true,
          "internalType": "uint256",
          "name": "tokenId",
          "type": "uint256"
        },
        {
          "indexed": true,
          "internalType": "address",
          "name": "licensee",
          "type": "address"
        }
      ],
      "name": "LicenseMinted",
      "type": "event"
    },
    {
      "anonymous": false,
      "inputs": [
        {
          "indexed": true,
          "internalType": "address",
          "name": "previousOwner",
          "type": "address"
        },
        {
          "indexed": true,
          "internalType": "address",
          "name": "newOwner",
          "type": "address"
        }
      ],
      "name": "OwnershipTransferred",
      "type": "event"
    },
    {
      "anonymous": false,
      "inputs": [
        {
          "indexed": true,
          "internalType": "uint256",
          "name": "tokenId",
          "type": "uint256"
        },
        {
          "indexed": false,
          "internalType": "uint256",
          "name": "amount",
          "type": "uint256"
        }
      ],
      "name": "RevenuePaid",
      "type": "event"
    },
    {
      "anonymous": false,
      "inputs": [
        {
          "indexed": true,
          "internalType": "uint256",
          "name": "tokenId",
          "type": "uint256"
        },
        {
          "indexed": true,
          "internalType": "address",
          "name": "claimant",
          "type": "address"
        },
        {
          "indexed": false,
          "internalType": "uint256",
          "name": "amount",
          "type": "uint256"
        }
      ],
      "name": "RoyaltyClaimed",
      "type": "event"
    },
    {
      "anonymous": false,
      "inputs": [
        {
          "indexed": true,
          "internalType": "address",
          "name": "from",
          "type": "address"
        },
        {
          "indexed": true,
          "internalType": "address",
          "name": "to",
          "type": "address"
        },
        {
          "indexed": true,
          "internalType": "uint256",
          "name": "tokenId",
          "type": "uint256"
        }
      ],
      "name": "Transfer",
      "type": "event"
    },
    {
      "inputs": [],
      "name": "DISPUTE_TIMEOUT",
      "outputs": [
        {
          "internalType": "uint256",
          "name": "",
          "type": "uint256"
        }
      ],
      "stateMutability": "view",
      "type": "function"
    },
    {
      "inputs": [],
      "name": "MINIMUM_LICENSE_DURATION",
      "outputs": [
        {
          "internalType": "uint256",
          "name": "",
          "type": "uint256"
        }
      ],
      "stateMutability": "view",
      "type": "function"
    },
    {
      "inputs": [],
      "name": "ROYALTY_DECIMALS",
      "outputs": [
        {
          "internalType": "uint256",
          "name": "",
          "type": "uint256"
        }
      ],
      "stateMutability": "view",
      "type": "function"
    },
    {
      "inputs": [],
      "name": "accountImplementation",
      "outputs": [
        {
          "internalType": "address",
          "name": "",
          "type": "address"
        }
      ],
      "stateMutability": "view",
      "type": "function"
    },
    {
      "inputs": [
        {
          "internalType": "address",
          "name": "to",
          "type": "address"
        },
        {
          "internalType": "uint256",
          "name": "tokenId",
          "type": "uint256"
        }
      ],
      "name": "approve",
      "outputs": [],
      "stateMutability": "nonpayable",
      "type": "function"
    },
    {
      "inputs": [
        {
          "internalType": "address",
          "name": "owner",
          "type": "address"
        }
      ],
      "name": "balanceOf",
      "outputs": [
        {
          "internalType": "uint256",
          "name": "",
          "type": "uint256"
        }
      ],
      "stateMutability": "view",
      "type": "function"
    },
    {
      "inputs": [],
      "name": "chainId",
      "outputs": [
        {
          "internalType": "uint256",
          "name": "",
          "type": "uint256"
        }
      ],
      "stateMutability": "view",
      "type": "function"
    },
    {
      "inputs": [
        {
          "internalType": "uint256",
          "name": "tokenId",
          "type": "uint256"
        }
      ],
      "name": "claimRoyalties",
      "outputs": [],
      "stateMutability": "nonpayable",
      "type": "function"
    },
    {
      "inputs": [
        {
          "internalType": "uint256",
          "name": "",
          "type": "uint256"
        }
      ],
      "name": "disputes",
      "outputs": [
        {
          "internalType": "uint256",
          "name": "disputeId",
          "type": "uint256"
        },
        {
          "internalType": "uint256",
          "name": "tokenId",
          "type": "uint256"
        },
        {
          "internalType": "address",
          "name": "disputer",
          "type": "address"
        },
        {
          "internalType": "string",
          "name": "reason",
          "type": "string"
        },
        {
          "internalType": "uint256",
          "name": "timestamp",
          "type": "uint256"
        },
        {
          "internalType": "bool",
          "name": "isResolved",
          "type": "bool"
        }
      ],
      "stateMutability": "view",
      "type": "function"
    },
    {
      "inputs": [
        {
          "internalType": "uint256",
          "name": "tokenId",
          "type": "uint256"
        }
      ],
      "name": "getApproved",
      "outputs": [
        {
          "internalType": "address",
          "name": "",
          "type": "address"
        }
      ],
      "stateMutability": "view",
      "type": "function"
    },
    {
      "inputs": [
        {
          "internalType": "uint256",
          "name": "tokenId",
          "type": "uint256"
        }
      ],
      "name": "getIPAccount",
      "outputs": [
        {
          "internalType": "address",
          "name": "",
          "type": "address"
        }
      ],
      "stateMutability": "view",
      "type": "function"
    },
    {
      "inputs": [
        {
          "internalType": "uint256",
          "name": "tokenId",
          "type": "uint256"
        }
      ],
      "name": "getIPAsset",
      "outputs": [
        {
          "internalType": "address",
          "name": "owner_",
          "type": "address"
        },
        {
          "internalType": "string",
          "name": "ipHash_",
          "type": "string"
        },
        {
          "internalType": "string",
          "name": "metadata_",
          "type": "string"
        },
        {
          "internalType": "bool",
          "name": "isEncrypted_",
          "type": "bool"
        },
        {
          "internalType": "bool",
          "name": "isDisputed_",
          "type": "bool"
        },
        {
          "internalType": "uint256",
          "name": "registrationDate_",
          "type": "uint256"
        },
        {
          "internalType": "uint256",
          "name": "totalRevenue_",
          "type": "uint256"
        },
        {
          "internalType": "uint256",
          "name": "royaltyTokens_",
          "type": "uint256"
        }
      ],
      "stateMutability": "view",
      "type": "function"
    },
    {
      "inputs": [
        {
          "internalType": "uint256",
          "name": "licenseId",
          "type": "uint256"
        }
      ],
      "name": "getLicense",
      "outputs": [
        {
          "internalType": "address",
          "name": "licensee_",
          "type": "address"
        },
        {
          "internalType": "uint256",
          "name": "tokenId_",
          "type": "uint256"
        },
        {
          "internalType": "uint256",
          "name": "royaltyPercentage_",
          "type": "uint256"
        },
        {
          "internalType": "uint256",
          "name": "duration_",
          "type": "uint256"
        },
        {
          "internalType": "uint256",
          "name": "startDate_",
          "type": "uint256"
        },
        {
          "internalType": "bool",
          "name": "isActive_",
          "type": "bool"
        },
        {
          "internalType": "bool",
          "name": "commercialUse_",
          "type": "bool"
        },
        {
          "internalType": "string",
          "name": "terms_",
          "type": "string"
        }
      ],
      "stateMutability": "view",
      "type": "function"
    },
    {
      "inputs": [
        {
          "internalType": "uint256",
          "name": "tokenId",
          "type": "uint256"
        },
        {
          "internalType": "address",
          "name": "claimant",
          "type": "address"
        }
      ],
      "name": "getRoyaltyInfo",
      "outputs": [
        {
          "internalType": "uint256",
          "name": "totalRevenue_",
          "type": "uint256"
        },
        {
          "internalType": "uint256",
          "name": "claimableAmount_",
          "type": "uint256"
        },
        {
          "internalType": "uint256",
          "name": "lastClaimed_",
          "type": "uint256"
        },
        {
          "internalType": "uint256",
          "name": "totalAccumulated_",
          "type": "uint256"
        }
      ],
      "stateMutability": "view",
      "type": "function"
    },
    {
      "inputs": [
        {
          "internalType": "uint256",
          "name": "",
          "type": "uint256"
        }
      ],
      "name": "ipAssets",
      "outputs": [
        {
          "internalType": "uint256",
          "name": "tokenId",
          "type": "uint256"
        },
        {
          "internalType": "address",
          "name": "owner",
          "type": "address"
        },
        {
          "internalType": "string",
          "name": "ipHash",
          "type": "string"
        },
        {
          "internalType": "string",
          "name": "metadata",
          "type": "string"
        },
        {
          "internalType": "bool",
          "name": "isEncrypted",
          "type": "bool"
        },
        {
          "internalType": "bool",
          "name": "isDisputed",
          "type": "bool"
        },
        {
          "internalType": "uint256",
          "name": "registrationDate",
          "type": "uint256"
        },
        {
          "internalType": "uint256",
          "name": "totalRevenue",
          "type": "uint256"
        },
        {
          "internalType": "uint256",
          "name": "royaltyTokens",
          "type": "uint256"
        }
      ],
      "stateMutability": "view",
      "type": "function"
    },
    {
      "inputs": [
        {
          "internalType": "address",
          "name": "owner",
          "type": "address"
        },
        {
          "internalType": "address",
          "name": "operator",
          "type": "address"
        }
      ],
      "name": "isApprovedForAll",
      "outputs": [
        {
          "internalType": "bool",
          "name": "",
          "type": "bool"
        }
      ],
      "stateMutability": "view",
      "type": "function"
    },
    {
      "inputs": [
        {
          "internalType": "uint256",
          "name": "",
          "type": "uint256"
        }
      ],
      "name": "licenses",
      "outputs": [
        {
          "internalType": "uint256",
          "name": "licenseId",
          "type": "uint256"
        },
        {
          "internalType": "address",
          "name": "licensee",
          "type": "address"
        },
        {
          "internalType": "uint256",
          "name": "tokenId",
          "type": "uint256"
        },
        {
          "internalType": "uint256",
          "name": "royaltyPercentage",
          "type": "uint256"
        },
        {
          "internalType": "uint256",
          "name": "duration",
          "type": "uint256"
        },
        {
          "internalType": "uint256",
          "name": "startDate",
          "type": "uint256"
        },
        {
          "internalType": "bool",
          "name": "isActive",
          "type": "bool"
        },
        {
          "internalType": "bool",
          "name": "commercialUse",
          "type": "bool"
        },
        {
          "internalType": "string",
          "name": "terms",
          "type": "string"
        }
      ],
      "stateMutability": "view",
      "type": "function"
    },
    {
      "inputs": [
        {
          "internalType": "uint256",
          "name": "tokenId",
          "type": "uint256"
        },
        {
          "internalType": "uint256",
          "name": "royaltyPercentage",
          "type": "uint256"
        },
        {
          "internalType": "uint256",
          "name": "duration",
          "type": "uint256"
        },
        {
          "internalType": "bool",
          "name": "commercialUse",
          "type": "bool"
        },
        {
          "internalType": "string",
          "name": "terms",
          "type": "string"
        }
      ],
      "name": "mintLicense",
      "outputs": [
        {
          "internalType": "uint256",
          "name": "",
          "type": "uint256"
        }
      ],
      "stateMutability": "nonpayable",
      "type": "function"
    },
    {
      "inputs": [],
      "name": "name",
      "outputs": [
        {
          "internalType": "string",
          "name": "",
          "type": "string"
        }
      ],
      "stateMutability": "view",
      "type": "function"
    },
    {
      "inputs": [],
      "name": "nextDisputeId",
      "outputs": [
        {
          "internalType": "uint256",
          "name": "",
          "type": "uint256"
        }
      ],
      "stateMutability": "view",
      "type": "function"
    },
    {
      "inputs": [],
      "name": "nextLicenseId",
      "outputs": [
        {
          "internalType": "uint256",
          "name": "",
          "type": "uint256"
        }
      ],
      "stateMutability": "view",
      "type": "function"
    },
    {
      "inputs": [],
      "name": "nextTokenId",
      "outputs": [
        {
          "internalType": "uint256",
          "name": "",
          "type": "uint256"
        }
      ],
      "stateMutability": "view",
      "type": "function"
    },
    {
      "inputs": [],
      "name": "owner",
      "outputs": [
        {
          "internalType": "address",
          "name": "",
          "type": "address"
        }
      ],
      "stateMutability": "view",
      "type": "function"
    },
    {
      "inputs": [
        {
          "internalType": "uint256",
          "name": "tokenId",
          "type": "uint256"
        }
      ],
      "name": "ownerOf",
      "outputs": [
        {
          "internalType": "address",
          "name": "",
          "type": "address"
        }
      ],
      "stateMutability": "view",
      "type": "function"
    },
    {
      "inputs": [
        {
          "internalType": "uint256",
          "name": "tokenId",
          "type": "uint256"
        }
      ],
      "name": "payRevenue",
      "outputs": [],
      "stateMutability": "payable",
      "type": "function"
    },
    {
      "inputs": [],
      "name": "platformFeeCollector",
      "outputs": [
        {
          "internalType": "address",
          "name": "",
          "type": "address"
        }
      ],
      "stateMutability": "view",
      "type": "function"
    },
    {
      "inputs": [],
      "name": "platformFeePercentage",
      "outputs": [
        {
          "internalType": "uint256",
          "name": "",
          "type": "uint256"
        }
      ],
      "stateMutability": "view",
      "type": "function"
    },
    {
      "inputs": [
        {
          "internalType": "uint256",
          "name": "tokenId",
          "type": "uint256"
        },
        {
          "internalType": "string",
          "name": "reason",
          "type": "string"
        }
      ],
      "name": "raiseDispute",
      "outputs": [],
      "stateMutability": "nonpayable",
      "type": "function"
    },
    {
      "inputs": [
        {
          "internalType": "string",
          "name": "ipHash",
          "type": "string"
        },
        {
          "internalType": "string",
          "name": "metadata",
          "type": "string"
        },
        {
          "internalType": "bool",
          "name": "isEncrypted",
          "type": "bool"
        }
      ],
      "name": "registerIP",
      "outputs": [
        {
          "internalType": "uint256",
          "name": "",
          "type": "uint256"
        }
      ],
      "stateMutability": "nonpayable",
      "type": "function"
    },
    {
      "inputs": [],
      "name": "registry",
      "outputs": [
        {
          "internalType": "contract ERC6551Registry",
          "name": "",
          "type": "address"
        }
      ],
      "stateMutability": "view",
      "type": "function"
    },
    {
      "inputs": [],
      "name": "renounceOwnership",
      "outputs": [],
      "stateMutability": "nonpayable",
      "type": "function"
    },
    {
      "inputs": [
        {
          "internalType": "uint256",
          "name": "disputeId",
          "type": "uint256"
        },
        {
          "internalType": "bool",
          "name": "resolved",
          "type": "bool"
        }
      ],
      "name": "resolveDispute",
      "outputs": [],
      "stateMutability": "nonpayable",
      "type": "function"
    },
    {
      "inputs": [
        {
          "internalType": "uint256",
          "name": "",
          "type": "uint256"
        }
      ],
      "name": "royaltyVaults",
      "outputs": [
        {
          "internalType": "uint256",
          "name": "totalAccumulated",
          "type": "uint256"
        },
        {
          "internalType": "uint256",
          "name": "lastClaimed",
          "type": "uint256"
        }
      ],
      "stateMutability": "view",
      "type": "function"
    },
    {
      "inputs": [
        {
          "internalType": "address",
          "name": "from",
          "type": "address"
        },
        {
          "internalType": "address",
          "name": "to",
          "type": "address"
        },
        {
          "internalType": "uint256",
          "name": "tokenId",
          "type": "uint256"
        }
      ],
      "name": "safeTransferFrom",
      "outputs": [],
      "stateMutability": "nonpayable",
      "type": "function"
    },
    {
      "inputs": [
        {
          "internalType": "address",
          "name": "from",
          "type": "address"
        },
        {
          "internalType": "address",
          "name": "to",
          "type": "address"
        },
        {
          "internalType": "uint256",
          "name": "tokenId",
          "type": "uint256"
        },
        {
          "internalType": "bytes",
          "name": "data",
          "type": "bytes"
        }
      ],
      "name": "safeTransferFrom",
      "outputs": [],
      "stateMutability": "nonpayable",
      "type": "function"
    },
    {
      "inputs": [
        {
          "internalType": "address",
          "name": "operator",
          "type": "address"
        },
        {
          "internalType": "bool",
          "name": "approved",
          "type": "bool"
        }
      ],
      "name": "setApprovalForAll",
      "outputs": [],
      "stateMutability": "nonpayable",
      "type": "function"
    },
    {
      "inputs": [
        {
          "internalType": "address",
          "name": "_platformFeeCollector",
          "type": "address"
        }
      ],
      "name": "setPlatformFeeCollector",
      "outputs": [],
      "stateMutability": "nonpayable",
      "type": "function"
    },
    {
      "inputs": [
        {
          "internalType": "uint256",
          "name": "_platformFeePercentage",
          "type": "uint256"
        }
      ],
      "name": "setPlatformFeePercentage",
      "outputs": [],
      "stateMutability": "nonpayable",
      "type": "function"
    },
    {
      "inputs": [
        {
          "internalType": "bytes4",
          "name": "interfaceId",
          "type": "bytes4"
        }
      ],
      "name": "supportsInterface",
      "outputs": [
        {
          "internalType": "bool",
          "name": "",
          "type": "bool"
        }
      ],
      "stateMutability": "view",
      "type": "function"
    },
    {
      "inputs": [],
      "name": "symbol",
      "outputs": [
        {
          "internalType": "string",
          "name": "",
          "type": "string"
        }
      ],
      "stateMutability": "view",
      "type": "function"
    },
    {
      "inputs": [
        {
          "internalType": "uint256",
          "name": "",
          "type": "uint256"
        },
        {
          "internalType": "uint256",
          "name": "",
          "type": "uint256"
        }
      ],
      "name": "tokenLicenses",
      "outputs": [
        {
          "internalType": "uint256",
          "name": "",
          "type": "uint256"
        }
      ],
      "stateMutability": "view",
      "type": "function"
    },
    {
      "inputs": [
        {
          "internalType": "uint256",
          "name": "tokenId",
          "type": "uint256"
        }
      ],
      "name": "tokenURI",
      "outputs": [
        {
          "internalType": "string",
          "name": "",
          "type": "string"
        }
      ],
      "stateMutability": "view",
      "type": "function"
    },
    {
      "inputs": [
        {
          "internalType": "address",
          "name": "from",
          "type": "address"
        },
        {
          "internalType": "address",
          "name": "to",
          "type": "address"
        },
        {
          "internalType": "uint256",
          "name": "tokenId",
          "type": "uint256"
        }
      ],
      "name": "transferFrom",
      "outputs": [],
      "stateMutability": "nonpayable",
      "type": "function"
    },
    {
      "inputs": [
        {
          "internalType": "uint256",
          "name": "tokenId",
          "type": "uint256"
        },
        {
          "internalType": "address",
          "name": "to",
          "type": "address"
        }
      ],
      "name": "transferIP",
      "outputs": [],
      "stateMutability": "nonpayable",
      "type": "function"
    },
    {
      "inputs": [
        {
          "internalType": "address",
          "name": "newOwner",
          "type": "address"
        }
      ],
      "name": "transferOwnership",
      "outputs": [],
      "stateMutability": "nonpayable",
      "type": "function"
    }
  ],
  "bytecode": "0x608060405260fa600c556001600d556001600e556001600f553480156200002557600080fd5b50604051620060073803806200600783398181016040528101906200004b9190620003ac565b336040518060400160405280600881526020017f4d6f6472656449500000000000000000000000000000000000000000000000008152506040518060400160405280600381526020017f4d495000000000000000000000000000000000000000000000000000000000008152508160009081620000c991906200068e565b508060019081620000db91906200068e565b505050600073ffffffffffffffffffffffffffffffffffffffff168173ffffffffffffffffffffffffffffffffffffffff1603620001535760006040517f1e4fbdf70000000000000000000000000000000000000000000000000000000081526004016200014a919062000786565b60405180910390fd5b62000164816200024160201b60201c565b50600160078190555083600860006101000a81548173ffffffffffffffffffffffffffffffffffffffff021916908373ffffffffffffffffffffffffffffffffffffffff16021790555082600960006101000a81548173ffffffffffffffffffffffffffffffffffffffff021916908373ffffffffffffffffffffffffffffffffffffffff16021790555081600a8190555080600b60006101000a81548173ffffffffffffffffffffffffffffffffffffffff021916908373ffffffffffffffffffffffffffffffffffffffff16021790555050505050620007a3565b6000600660009054906101000a900473ffffffffffffffffffffffffffffffffffffffff16905081600660006101000a81548173ffffffffffffffffffffffffffffffffffffffff021916908373ffffffffffffffffffffffffffffffffffffffff1602179055508173ffffffffffffffffffffffffffffffffffffffff168173ffffffffffffffffffffffffffffffffffffffff167f8be0079c531659141344cd1fd0a4f28419497f9722a3daafe3b4186f6b6457e060405160405180910390a35050565b600080fd5b600073ffffffffffffffffffffffffffffffffffffffff82169050919050565b600062000339826200030c565b9050919050565b6200034b816200032c565b81146200035757600080fd5b50565b6000815190506200036b8162000340565b92915050565b6000819050919050565b620003868162000371565b81146200039257600080fd5b50565b600081519050620003a6816200037b565b92915050565b60008060008060808587031215620003c957620003c862000307565b5b6000620003d9878288016200035a565b9450506020620003ec878288016200035a565b9350506040620003ff8782880162000395565b925050606062000412878288016200035a565b91505092959194509250565b600081519050919050565b7f4e487b7100000000000000000000000000000000000000000000000000000000600052604160045260246000fd5b7f4e487b7100000000000000000000000000000000000000000000000000000000600052602260045260246000fd5b60006002820490506001821680620004a057607f821691505b602082108103620004b657620004b562000458565b5b50919050565b60008190508160005260206000209050919050565b60006020601f8301049050919050565b600082821b905092915050565b600060088302620005207fffffffffffffffffffffffffffffffffffffffffffffffffffffffffffffffff82620004e1565b6200052c8683620004e1565b95508019841693508086168417925050509392505050565b6000819050919050565b60006200056f62000569620005638462000371565b62000544565b62000371565b9050919050565b6000819050919050565b6200058b836200054e565b620005a36200059a8262000576565b848454620004ee565b825550505050565b600090565b620005ba620005ab565b620005c781848462000580565b505050565b5b81811015620005ef57620005e3600082620005b0565b600181019050620005cd565b5050565b601f8211156200063e576200060881620004bc565b6200061384620004d1565b8101602085101562000623578190505b6200063b6200063285620004d1565b830182620005cc565b50505b505050565b600082821c905092915050565b6000620006636000198460080262000643565b1980831691505092915050565b60006200067e838362000650565b9150826002028217905092915050565b62000699826200041e565b67ffffffffffffffff811115620006b557620006b462000429565b5b620006c1825462000487565b620006ce828285620005f3565b600060209050601f831160018114620007065760008415620006f1578287015190505b620006fd858262000670565b8655506200076d565b601f1984166200071686620004bc565b60005b82811015620007405784890151825560018201915060208501945060208101905062000719565b868310156200076057848901516200075c601f89168262000650565b8355505b6001600288020188555050505b505050505050565b62000780816200032c565b82525050565b60006020820190506200079d600083018462000775565b92915050565b61585480620007b36000396000f3fe6080604052600436106102725760003560e01c806375794a3c1161014f578063b2dd1212116100c1578063cf7f8f791161007a578063cf7f8f79146109d4578063dfc90cf214610a14578063e985e9c514610a3d578063f2d5c14c14610a7a578063f2fde38b14610ab7578063f338456e14610ae057610272565b8063b2dd121214610897578063b88d4fde146108db578063b917246614610904578063c87b56dd14610941578063ca77df2c1461097e578063cdd78cfc146109a957610272565b80638da5cb5b116101135780638da5cb5b1461076b57806395d89b41146107965780639a8a0592146107c1578063a22cb465146107ec578063a8597e1314610815578063b1cefb4b1461085257610272565b806375794a3c146106985780637b103999146106c35780638333903e146106ee578063853a65f91461071757806386ad310f1461074257610272565b806334b25ee2116101e85780635aef573c116101ac5780635aef573c146105755780636352211e1461059e578063669c659e146105db5780636f3636651461060657806370a0823114610644578063715018a61461068157610272565b806334b25ee21461048b57806342842e0e146104b4578063486265c6146104dd578063492f471c14610508578063564a565d1461053357610272565b806311464fbe1161023a57806311464fbe14610370578063194e5b5c1461039b57806323b872dd146103d85780632d932598146104015780633248cdf81461042a578063337908451461044657610272565b806301ffc9a71461027757806306fdde03146102b4578063081812fc146102df578063095ea7b31461031c5780630db3993414610345575b600080fd5b34801561028357600080fd5b5061029e60048036038101906102999190613f30565b610b24565b6040516102ab9190613f78565b60405180910390f35b3480156102c057600080fd5b506102c9610c06565b6040516102d69190614023565b60405180910390f35b3480156102eb57600080fd5b506103066004803603810190610301919061407b565b610c98565b60405161031391906140e9565b60405180910390f35b34801561032857600080fd5b50610343600480360381019061033e9190614130565b610cb4565b005b34801561035157600080fd5b5061035a610cca565b604051610367919061417f565b60405180910390f35b34801561037c57600080fd5b50610385610cd0565b60405161039291906140e9565b60405180910390f35b3480156103a757600080fd5b506103c260048036038101906103bd919061419a565b610cf6565b6040516103cf919061417f565b60405180910390f35b3480156103e457600080fd5b506103ff60048036038101906103fa91906141da565b610d27565b005b34801561040d57600080fd5b506104286004803603810190610423919061422d565b610e0b565b005b610444600480360381019061043f919061407b565b610fb2565b005b34801561045257600080fd5b5061046d6004803603810190610468919061407b565b611409565b6040516104829998979695949392919061426d565b60405180910390f35b34801561049757600080fd5b506104b260048036038101906104ad919061432d565b611519565b005b3480156104c057600080fd5b506104db60048036038101906104d691906141da565b611669565b005b3480156104e957600080fd5b506104f2611689565b6040516104ff919061417f565b60405180910390f35b34801561051457600080fd5b5061051d611690565b60405161052a919061417f565b60405180910390f35b34801561053f57600080fd5b5061055a6004803603810190610555919061407b565b611696565b60405161056c9695949392919061436d565b60405180910390f35b34801561058157600080fd5b5061059c6004803603810190610597919061450a565b611787565b005b3480156105aa57600080fd5b506105c560048036038101906105c0919061407b565b6119ed565b6040516105d291906140e9565b60405180910390f35b3480156105e757600080fd5b506105f06119ff565b6040516105fd919061417f565b60405180910390f35b34801561061257600080fd5b5061062d6004803603810190610628919061407b565b611a06565b60405161063b929190614566565b60405180910390f35b34801561065057600080fd5b5061066b6004803603810190610666919061458f565b611a2a565b604051610678919061417f565b60405180910390f35b34801561068d57600080fd5b50610696611ae4565b005b3480156106a457600080fd5b506106ad611af8565b6040516106ba919061417f565b60405180910390f35b3480156106cf57600080fd5b506106d8611afe565b6040516106e5919061461b565b60405180910390f35b3480156106fa57600080fd5b506107156004803603810190610710919061407b565b611b24565b005b34801561072357600080fd5b5061072c611b7b565b60405161073991906140e9565b60405180910390f35b34801561074e57600080fd5b506107696004803603810190610764919061407b565b611ba1565b005b34801561077757600080fd5b50610780611da1565b60405161078d91906140e9565b60405180910390f35b3480156107a257600080fd5b506107ab611dcb565b6040516107b89190614023565b60405180910390f35b3480156107cd57600080fd5b506107d6611e5d565b6040516107e3919061417f565b60405180910390f35b3480156107f857600080fd5b50610813600480360381019061080e9190614636565b611e63565b005b34801561082157600080fd5b5061083c60048036038101906108379190614676565b611e79565b604051610849919061417f565b60405180910390f35b34801561085e57600080fd5b506108796004803603810190610874919061407b565b61226c565b60405161088e9998979695949392919061470d565b60405180910390f35b3480156108a357600080fd5b506108be60048036038101906108b9919061407b565b612404565b6040516108d29897969594939291906147a8565b60405180910390f35b3480156108e757600080fd5b5061090260048036038101906108fd91906148ce565b612531565b005b34801561091057600080fd5b5061092b60048036038101906109269190614951565b612617565b604051610938919061417f565b60405180910390f35b34801561094d57600080fd5b506109686004803603810190610963919061407b565b6127e7565b6040516109759190614023565b60405180910390f35b34801561098a57600080fd5b50610993612906565b6040516109a0919061417f565b60405180910390f35b3480156109b557600080fd5b506109be61290c565b6040516109cb919061417f565b60405180910390f35b3480156109e057600080fd5b506109fb60048036038101906109f6919061422d565b612912565b604051610a0b94939291906149dc565b60405180910390f35b348015610a2057600080fd5b50610a3b6004803603810190610a36919061458f565b6129aa565b005b348015610a4957600080fd5b50610a646004803603810190610a5f9190614a21565b6129f6565b604051610a719190613f78565b60405180910390f35b348015610a8657600080fd5b50610aa16004803603810190610a9c919061407b565b612a8a565b604051610aae91906140e9565b60405180910390f35b348015610ac357600080fd5b50610ade6004803603810190610ad9919061458f565b612b5c565b005b348015610aec57600080fd5b50610b076004803603810190610b02919061407b565b612be2565b604051610b1b989796959493929190614a61565b60405180910390f35b60007f80ac58cd000000000000000000000000000000000000000000000000000000007bffffffffffffffffffffffffffffffffffffffffffffffffffffffff1916827bffffffffffffffffffffffffffffffffffffffffffffffffffffffff19161480610bef57507f5b5e139f000000000000000000000000000000000000000000000000000000007bffffffffffffffffffffffffffffffffffffffffffffffffffffffff1916827bffffffffffffffffffffffffffffffffffffffffffffffffffffffff1916145b80610bff5750610bfe82612d99565b5b9050919050565b606060008054610c1590614b1c565b80601f0160208091040260200160405190810160405280929190818152602001828054610c4190614b1c565b8015610c8e5780601f10610c6357610100808354040283529160200191610c8e565b820191906000526020600020905b815481529060010190602001808311610c7157829003601f168201915b5050505050905090565b6000610ca382612e03565b50610cad82612e8b565b9050919050565b610cc68282610cc1612ec8565b612ed0565b5050565b600f5481565b600960009054906101000a900473ffffffffffffffffffffffffffffffffffffffff1681565b60146020528160005260406000208181548110610d1257600080fd5b90600052602060002001600091509150505481565b600073ffffffffffffffffffffffffffffffffffffffff168373ffffffffffffffffffffffffffffffffffffffff1614158015610d915750600073ffffffffffffffffffffffffffffffffffffffff168273ffffffffffffffffffffffffffffffffffffffff1614155b15610dfb576010600082815260200190815260200160002060040160019054906101000a900460ff1615610dfa576040517f08c379a0000000000000000000000000000000000000000000000000000000008152600401610df190614b99565b60405180910390fd5b5b610e06838383612ee2565b505050565b3373ffffffffffffffffffffffffffffffffffffffff16610e2b836119ed565b73ffffffffffffffffffffffffffffffffffffffff1614610e81576040517f08c379a0000000000000000000000000000000000000000000000000000000008152600401610e7890614c05565b60405180910390fd5b6010600083815260200190815260200160002060040160019054906101000a900460ff1615610ee5576040517f08c379a0000000000000000000000000000000000000000000000000000000008152600401610edc90614b99565b60405180910390fd5b6000610ef0836119ed565b9050610efd818385612fe4565b816010600085815260200190815260200160002060010160006101000a81548173ffffffffffffffffffffffffffffffffffffffff021916908373ffffffffffffffffffffffffffffffffffffffff1602179055508173ffffffffffffffffffffffffffffffffffffffff168173ffffffffffffffffffffffffffffffffffffffff16847f1757856899d0b1fbb2e309cb05cda166887b13df401307904c3042b4b759dc3960405160405180910390a4505050565b610fba613151565b600073ffffffffffffffffffffffffffffffffffffffff16610fdb82613197565b73ffffffffffffffffffffffffffffffffffffffff1603611031576040517f08c379a000000000000000000000000000000000000000000000000000000000815260040161102890614c71565b60405180910390fd5b60003411611074576040517f08c379a000000000000000000000000000000000000000000000000000000000815260040161106b90614cdd565b60405180910390fd5b60006010600083815260200190815260200160002090503481600601600082825461109f9190614d2c565b925050819055506000612710600c54346110b99190614d60565b6110c39190614dd1565b9050600081346110d39190614e02565b90506000821180156111345750600073ffffffffffffffffffffffffffffffffffffffff16600b60009054906101000a900473ffffffffffffffffffffffffffffffffffffffff1673ffffffffffffffffffffffffffffffffffffffff1614155b15611209576000600b60009054906101000a900473ffffffffffffffffffffffffffffffffffffffff1673ffffffffffffffffffffffffffffffffffffffff168360405161118190614e67565b60006040518083038185875af1925050503d80600081146111be576040519150601f19603f3d011682016040523d82523d6000602084013e6111c3565b606091505b5050905080611207576040517f08c379a00000000000000000000000000000000000000000000000000000000081526004016111fe90614ec8565b60405180910390fd5b505b60006014600086815260200190815260200160002080548060200260200160405190810160405280929190818152602001828054801561126857602002820191906000526020600020905b815481526020019060010190808311611254575b5050505050905060005b81518110156113c15760006011600084848151811061129457611293614ee8565b5b6020026020010151815260200190815260200160002090508060060160009054906101000a900460ff1680156112dc5750806004015481600501546112d99190614d2c565b42105b156113b35760006127108260030154866112f69190614d60565b6113009190614dd1565b90506000601360008a81526020019081526020016000209050818160020160008560010160009054906101000a900473ffffffffffffffffffffffffffffffffffffffff1673ffffffffffffffffffffffffffffffffffffffff1673ffffffffffffffffffffffffffffffffffffffff168152602001908152602001600020600082825461138e9190614d2c565b92505081905550818160000160008282546113a99190614d2c565b9250508190555050505b508080600101915050611272565b50847f7f4ebe5ca42340d9b48ed614d06fdfcdef473881621be7ff1ef4692c8d879e43346040516113f2919061417f565b60405180910390a2505050506114066131d4565b50565b60116020528060005260406000206000915090508060000154908060010160009054906101000a900473ffffffffffffffffffffffffffffffffffffffff16908060020154908060030154908060040154908060050154908060060160009054906101000a900460ff16908060060160019054906101000a900460ff169080600701805461149690614b1c565b80601f01602080910402602001604051908101604052809291908181526020018280546114c290614b1c565b801561150f5780601f106114e45761010080835404028352916020019161150f565b820191906000526020600020905b8154815290600101906020018083116114f257829003601f168201915b5050505050905089565b6115216131de565b6000601260008481526020019081526020016000209050600081600001540361157f576040517f08c379a000000000000000000000000000000000000000000000000000000000815260040161157690614f63565b60405180910390fd5b8060050160009054906101000a900460ff16156115d1576040517f08c379a00000000000000000000000000000000000000000000000000000000081526004016115c890614fcf565b60405180910390fd5b818160050160006101000a81548160ff0219169083151502179055508115611627576000601060008360010154815260200190815260200160002060040160016101000a81548160ff0219169083151502179055505b8060010154837fc84a77110774854ab237145b108e924962dbaa5191275eb044a6cb09621c4a948460405161165c9190613f78565b60405180910390a3505050565b61168483838360405180602001604052806000815250612531565b505050565b62278d0081565b600e5481565b60126020528060005260406000206000915090508060000154908060010154908060020160009054906101000a900473ffffffffffffffffffffffffffffffffffffffff16908060030180546116eb90614b1c565b80601f016020809104026020016040519081016040528092919081815260200182805461171790614b1c565b80156117645780601f1061173957610100808354040283529160200191611764565b820191906000526020600020905b81548152906001019060200180831161174757829003601f168201915b5050505050908060040154908060050160009054906101000a900460ff16905086565b600073ffffffffffffffffffffffffffffffffffffffff166117a883613197565b73ffffffffffffffffffffffffffffffffffffffff16036117fe576040517f08c379a00000000000000000000000000000000000000000000000000000000081526004016117f590614c71565b60405180910390fd5b6010600083815260200190815260200160002060040160019054906101000a900460ff1615611862576040517f08c379a00000000000000000000000000000000000000000000000000000000081526004016118599061503b565b60405180910390fd5b6000600f60008154809291906118779061505b565b9190505590506040518060c001604052808281526020018481526020013373ffffffffffffffffffffffffffffffffffffffff1681526020018381526020014281526020016000151581525060126000838152602001908152602001600020600082015181600001556020820151816001015560408201518160020160006101000a81548173ffffffffffffffffffffffffffffffffffffffff021916908373ffffffffffffffffffffffffffffffffffffffff16021790555060608201518160030190816119469190615245565b506080820151816004015560a08201518160050160006101000a81548160ff02191690831515021790555090505060016010600085815260200190815260200160002060040160016101000a81548160ff0219169083151502179055503373ffffffffffffffffffffffffffffffffffffffff1683827f83201991c75b30e493678d0543bdbd02d6a194a5a0dda31490a5fe09e9f0a22060405160405180910390a4505050565b60006119f882612e03565b9050919050565b6201518081565b60136020528060005260406000206000915090508060000154908060010154905082565b60008073ffffffffffffffffffffffffffffffffffffffff168273ffffffffffffffffffffffffffffffffffffffff1603611a9d5760006040517f89c62b64000000000000000000000000000000000000000000000000000000008152600401611a9491906140e9565b60405180910390fd5b600360008373ffffffffffffffffffffffffffffffffffffffff1673ffffffffffffffffffffffffffffffffffffffff168152602001908152602001600020549050919050565b611aec6131de565b611af66000613265565b565b600d5481565b600860009054906101000a900473ffffffffffffffffffffffffffffffffffffffff1681565b611b2c6131de565b612710811115611b71576040517f08c379a0000000000000000000000000000000000000000000000000000000008152600401611b6890615363565b60405180910390fd5b80600c8190555050565b600b60009054906101000a900473ffffffffffffffffffffffffffffffffffffffff1681565b611ba9613151565b600060136000838152602001908152602001600020905060008160020160003373ffffffffffffffffffffffffffffffffffffffff1673ffffffffffffffffffffffffffffffffffffffff16815260200190815260200160002054905060008111611c49576040517f08c379a0000000000000000000000000000000000000000000000000000000008152600401611c40906153cf565b60405180910390fd5b60008260020160003373ffffffffffffffffffffffffffffffffffffffff1673ffffffffffffffffffffffffffffffffffffffff1681526020019081526020016000208190555042826001018190555060003373ffffffffffffffffffffffffffffffffffffffff1682604051611cbf90614e67565b60006040518083038185875af1925050503d8060008114611cfc576040519150601f19603f3d011682016040523d82523d6000602084013e611d01565b606091505b5050905080611d45576040517f08c379a0000000000000000000000000000000000000000000000000000000008152600401611d3c9061543b565b60405180910390fd5b3373ffffffffffffffffffffffffffffffffffffffff16847e5ff6321fbc462bad97d71220393208f0286cd4482b70c04f592526a75656d384604051611d8b919061417f565b60405180910390a3505050611d9e6131d4565b50565b6000600660009054906101000a900473ffffffffffffffffffffffffffffffffffffffff16905090565b606060018054611dda90614b1c565b80601f0160208091040260200160405190810160405280929190818152602001828054611e0690614b1c565b8015611e535780601f10611e2857610100808354040283529160200191611e53565b820191906000526020600020905b815481529060010190602001808311611e3657829003601f168201915b5050505050905090565b600a5481565b611e75611e6e612ec8565b838361332b565b5050565b60008073ffffffffffffffffffffffffffffffffffffffff16611e9b87613197565b73ffffffffffffffffffffffffffffffffffffffff1603611ef1576040517f08c379a0000000000000000000000000000000000000000000000000000000008152600401611ee890614c71565b60405180910390fd5b3373ffffffffffffffffffffffffffffffffffffffff16611f11876119ed565b73ffffffffffffffffffffffffffffffffffffffff1614611f67576040517f08c379a0000000000000000000000000000000000000000000000000000000008152600401611f5e906154a7565b60405180910390fd5b62015180841015611fad576040517f08c379a0000000000000000000000000000000000000000000000000000000008152600401611fa490615513565b60405180910390fd5b6010600087815260200190815260200160002060070154851115612006576040517f08c379a0000000000000000000000000000000000000000000000000000000008152600401611ffd9061557f565b60405180910390fd5b60026127106120159190614dd1565b851115612057576040517f08c379a000000000000000000000000000000000000000000000000000000000815260040161204e906155eb565b60405180910390fd5b6000600e600081548092919061206c9061505b565b9190505590506040518061012001604052808281526020013373ffffffffffffffffffffffffffffffffffffffff168152602001888152602001878152602001868152602001428152602001600115158152602001851515815260200184815250601160008381526020019081526020016000206000820151816000015560208201518160010160006101000a81548173ffffffffffffffffffffffffffffffffffffffff021916908373ffffffffffffffffffffffffffffffffffffffff16021790555060408201518160020155606082015181600301556080820151816004015560a0820151816005015560c08201518160060160006101000a81548160ff02191690831515021790555060e08201518160060160016101000a81548160ff0219169083151502179055506101008201518160070190816121af9190615245565b5090505060146000888152602001908152602001600020819080600181540180825580915050600190039060005260206000200160009091909190915055856010600089815260200190815260200160002060070160008282546122139190614e02565b925050819055503373ffffffffffffffffffffffffffffffffffffffff1687827ff3e06c5a2377f321895ab1f570aa3551aadcbe18d7fc962f31b9693634df630860405160405180910390a48091505095945050505050565b60106020528060005260406000206000915090508060000154908060010160009054906101000a900473ffffffffffffffffffffffffffffffffffffffff16908060020180546122bb90614b1c565b80601f01602080910402602001604051908101604052809291908181526020018280546122e790614b1c565b80156123345780601f1061230957610100808354040283529160200191612334565b820191906000526020600020905b81548152906001019060200180831161231757829003601f168201915b50505050509080600301805461234990614b1c565b80601f016020809104026020016040519081016040528092919081815260200182805461237590614b1c565b80156123c25780601f10612397576101008083540402835291602001916123c2565b820191906000526020600020905b8154815290600101906020018083116123a557829003601f168201915b5050505050908060040160009054906101000a900460ff16908060040160019054906101000a900460ff16908060050154908060060154908060070154905089565b600080600080600080600060606000601160008b815260200190815260200160002090508060010160009054906101000a900473ffffffffffffffffffffffffffffffffffffffff1681600201548260030154836004015484600501548560060160009054906101000a900460ff168660060160019054906101000a900460ff168760070180805461249590614b1c565b80601f01602080910402602001604051908101604052809291908181526020018280546124c190614b1c565b801561250e5780601f106124e35761010080835404028352916020019161250e565b820191906000526020600020905b8154815290600101906020018083116124f157829003601f168201915b505050505090509850985098509850985098509850985050919395975091939597565b600073ffffffffffffffffffffffffffffffffffffffff168473ffffffffffffffffffffffffffffffffffffffff161415801561259b5750600073ffffffffffffffffffffffffffffffffffffffff168373ffffffffffffffffffffffffffffffffffffffff1614155b15612605576010600083815260200190815260200160002060040160019054906101000a900460ff1615612604576040517f08c379a00000000000000000000000000000000000000000000000000000000081526004016125fb90614b99565b60405180910390fd5b5b6126118484848461349a565b50505050565b600080600d600081548092919061262d9061505b565b9190505590506040518061012001604052808281526020013373ffffffffffffffffffffffffffffffffffffffff168152602001868152602001858152602001841515815260200160001515815260200142815260200160008152602001612710815250601060008381526020019081526020016000206000820151816000015560208201518160010160006101000a81548173ffffffffffffffffffffffffffffffffffffffff021916908373ffffffffffffffffffffffffffffffffffffffff160217905550604082015181600201908161270a9190615245565b5060608201518160030190816127209190615245565b5060808201518160040160006101000a81548160ff02191690831515021790555060a08201518160040160016101000a81548160ff02191690831515021790555060c0820151816005015560e08201518160060155610100820151816007015590505061278d33826134bf565b3373ffffffffffffffffffffffffffffffffffffffff16817f725520a098b8482798bc7dbba42fdafe9a372e065d49b40f4f87da50cf476d25876040516127d49190614023565b60405180910390a3809150509392505050565b6060600073ffffffffffffffffffffffffffffffffffffffff1661280a83613197565b73ffffffffffffffffffffffffffffffffffffffff1603612860576040517f08c379a000000000000000000000000000000000000000000000000000000000815260040161285790614c71565b60405180910390fd5b60106000838152602001908152602001600020600301805461288190614b1c565b80601f01602080910402602001604051908101604052809291908181526020018280546128ad90614b1c565b80156128fa5780601f106128cf576101008083540402835291602001916128fa565b820191906000526020600020905b8154815290600101906020018083116128dd57829003601f168201915b50505050509050919050565b61271081565b600c5481565b6000806000806000601060008881526020019081526020016000209050600060136000898152602001908152602001600020905081600601548160020160008973ffffffffffffffffffffffffffffffffffffffff1673ffffffffffffffffffffffffffffffffffffffff16815260200190815260200160002054826001015483600001549550955095509550505092959194509250565b6129b26131de565b80600b60006101000a81548173ffffffffffffffffffffffffffffffffffffffff021916908373ffffffffffffffffffffffffffffffffffffffff16021790555050565b6000600560008473ffffffffffffffffffffffffffffffffffffffff1673ffffffffffffffffffffffffffffffffffffffff16815260200190815260200160002060008373ffffffffffffffffffffffffffffffffffffffff1673ffffffffffffffffffffffffffffffffffffffff16815260200190815260200160002060009054906101000a900460ff16905092915050565b6000600860009054906101000a900473ffffffffffffffffffffffffffffffffffffffff1673ffffffffffffffffffffffffffffffffffffffff16635e9bc536600960009054906101000a900473ffffffffffffffffffffffffffffffffffffffff16600a54308660006040518663ffffffff1660e01b8152600401612b14959493929190615646565b602060405180830381865afa158015612b31573d6000803e3d6000fd5b505050506040513d601f19601f82011682018060405250810190612b5591906156ae565b9050919050565b612b646131de565b600073ffffffffffffffffffffffffffffffffffffffff168173ffffffffffffffffffffffffffffffffffffffff1603612bd65760006040517f1e4fbdf7000000000000000000000000000000000000000000000000000000008152600401612bcd91906140e9565b60405180910390fd5b612bdf81613265565b50565b6000606080600080600080600080601060008b815260200190815260200160002090508060010160009054906101000a900473ffffffffffffffffffffffffffffffffffffffff1681600201826003018360040160009054906101000a900460ff168460040160019054906101000a900460ff16856005015486600601548760070154868054612c7190614b1c565b80601f0160208091040260200160405190810160405280929190818152602001828054612c9d90614b1c565b8015612cea5780601f10612cbf57610100808354040283529160200191612cea565b820191906000526020600020905b815481529060010190602001808311612ccd57829003601f168201915b50505050509650858054612cfd90614b1c565b80601f0160208091040260200160405190810160405280929190818152602001828054612d2990614b1c565b8015612d765780601f10612d4b57610100808354040283529160200191612d76565b820191906000526020600020905b815481529060010190602001808311612d5957829003601f168201915b505050505095509850985098509850985098509850985050919395975091939597565b60007f01ffc9a7000000000000000000000000000000000000000000000000000000007bffffffffffffffffffffffffffffffffffffffffffffffffffffffff1916827bffffffffffffffffffffffffffffffffffffffffffffffffffffffff1916149050919050565b600080612e0f83613197565b9050600073ffffffffffffffffffffffffffffffffffffffff168173ffffffffffffffffffffffffffffffffffffffff1603612e8257826040517f7e273289000000000000000000000000000000000000000000000000000000008152600401612e79919061417f565b60405180910390fd5b80915050919050565b60006004600083815260200190815260200160002060009054906101000a900473ffffffffffffffffffffffffffffffffffffffff169050919050565b600033905090565b612edd83838360016135b8565b505050565b600073ffffffffffffffffffffffffffffffffffffffff168273ffffffffffffffffffffffffffffffffffffffff1603612f545760006040517f64a0ae92000000000000000000000000000000000000000000000000000000008152600401612f4b91906140e9565b60405180910390fd5b6000612f688383612f63612ec8565b61377d565b90508373ffffffffffffffffffffffffffffffffffffffff168173ffffffffffffffffffffffffffffffffffffffff1614612fde578382826040517f64283d7b000000000000000000000000000000000000000000000000000000008152600401612fd5939291906156db565b60405180910390fd5b50505050565b600073ffffffffffffffffffffffffffffffffffffffff168273ffffffffffffffffffffffffffffffffffffffff16036130565760006040517f64a0ae9200000000000000000000000000000000000000000000000000000000815260040161304d91906140e9565b60405180910390fd5b60006130648383600061377d565b9050600073ffffffffffffffffffffffffffffffffffffffff168173ffffffffffffffffffffffffffffffffffffffff16036130d757816040517f7e2732890000000000000000000000000000000000000000000000000000000081526004016130ce919061417f565b60405180910390fd5b8373ffffffffffffffffffffffffffffffffffffffff168173ffffffffffffffffffffffffffffffffffffffff161461314b578382826040517f64283d7b000000000000000000000000000000000000000000000000000000008152600401613142939291906156db565b60405180910390fd5b50505050565b60026007540361318d576040517f3ee5aeb500000000000000000000000000000000000000000000000000000000815260040160405180910390fd5b6002600781905550565b60006002600083815260200190815260200160002060009054906101000a900473ffffffffffffffffffffffffffffffffffffffff169050919050565b6001600781905550565b6131e6612ec8565b73ffffffffffffffffffffffffffffffffffffffff16613204611da1565b73ffffffffffffffffffffffffffffffffffffffff161461326357613227612ec8565b6040517f118cdaa700000000000000000000000000000000000000000000000000000000815260040161325a91906140e9565b60405180910390fd5b565b6000600660009054906101000a900473ffffffffffffffffffffffffffffffffffffffff16905081600660006101000a81548173ffffffffffffffffffffffffffffffffffffffff021916908373ffffffffffffffffffffffffffffffffffffffff1602179055508173ffffffffffffffffffffffffffffffffffffffff168173ffffffffffffffffffffffffffffffffffffffff167f8be0079c531659141344cd1fd0a4f28419497f9722a3daafe3b4186f6b6457e060405160405180910390a35050565b600073ffffffffffffffffffffffffffffffffffffffff168273ffffffffffffffffffffffffffffffffffffffff160361339c57816040517f5b08ba1800000000000000000000000000000000000000000000000000000000815260040161339391906140e9565b60405180910390fd5b80600560008573ffffffffffffffffffffffffffffffffffffffff1673ffffffffffffffffffffffffffffffffffffffff16815260200190815260200160002060008473ffffffffffffffffffffffffffffffffffffffff1673ffffffffffffffffffffffffffffffffffffffff16815260200190815260200160002060006101000a81548160ff0219169083151502179055508173ffffffffffffffffffffffffffffffffffffffff168373ffffffffffffffffffffffffffffffffffffffff167f17307eab39ab6107e8899845ad3d59bd9653f200f220920489ca2b5937696c318360405161348d9190613f78565b60405180910390a3505050565b6134a5848484610d27565b6134b96134b0612ec8565b85858585613974565b50505050565b600073ffffffffffffffffffffffffffffffffffffffff168273ffffffffffffffffffffffffffffffffffffffff16036135315760006040517f64a0ae9200000000000000000000000000000000000000000000000000000000815260040161352891906140e9565b60405180910390fd5b600061353f8383600061377d565b9050600073ffffffffffffffffffffffffffffffffffffffff168173ffffffffffffffffffffffffffffffffffffffff16146135b35760006040517f73c6ac6e0000000000000000000000000000000000000000000000000000000081526004016135aa91906140e9565b60405180910390fd5b505050565b80806135f15750600073ffffffffffffffffffffffffffffffffffffffff168273ffffffffffffffffffffffffffffffffffffffff1614155b1561372557600061360184612e03565b9050600073ffffffffffffffffffffffffffffffffffffffff168373ffffffffffffffffffffffffffffffffffffffff161415801561366c57508273ffffffffffffffffffffffffffffffffffffffff168173ffffffffffffffffffffffffffffffffffffffff1614155b801561367f575061367d81846129f6565b155b156136c157826040517fa9fbf51f0000000000000000000000000000000000000000000000000000000081526004016136b891906140e9565b60405180910390fd5b811561372357838573ffffffffffffffffffffffffffffffffffffffff168273ffffffffffffffffffffffffffffffffffffffff167f8c5be1e5ebec7d5bd14f71427d1e84f3dd0314c0f7b2291e5b200ac8c7c3b92560405160405180910390a45b505b836004600085815260200190815260200160002060006101000a81548173ffffffffffffffffffffffffffffffffffffffff021916908373ffffffffffffffffffffffffffffffffffffffff16021790555050505050565b60008061378984613197565b90506000613798868686613b25565b9050600060106000878152602001908152602001600020600001541461396857600073ffffffffffffffffffffffffffffffffffffffff168273ffffffffffffffffffffffffffffffffffffffff16141580156138225750600073ffffffffffffffffffffffffffffffffffffffff168673ffffffffffffffffffffffffffffffffffffffff1614155b156138dc57856010600087815260200190815260200160002060010160006101000a81548173ffffffffffffffffffffffffffffffffffffffff021916908373ffffffffffffffffffffffffffffffffffffffff1602179055508573ffffffffffffffffffffffffffffffffffffffff168273ffffffffffffffffffffffffffffffffffffffff16867f1757856899d0b1fbb2e309cb05cda166887b13df401307904c3042b4b759dc3960405160405180910390a4613967565b600073ffffffffffffffffffffffffffffffffffffffff168673ffffffffffffffffffffffffffffffffffffffff161461396657856010600087815260200190815260200160002060010160006101000a81548173ffffffffffffffffffffffffffffffffffffffff021916908373ffffffffffffffffffffffffffffffffffffffff1602179055505b5b5b80925050509392505050565b60008373ffffffffffffffffffffffffffffffffffffffff163b1115613b1e578273ffffffffffffffffffffffffffffffffffffffff1663150b7a02868685856040518563ffffffff1660e01b81526004016139d39493929190615767565b6020604051808303816000875af1925050508015613a0f57506040513d601f19601f82011682018060405250810190613a0c91906157c8565b60015b613a93573d8060008114613a3f576040519150601f19603f3d011682016040523d82523d6000602084013e613a44565b606091505b506000815103613a8b57836040517f64a0ae92000000000000000000000000000000000000000000000000000000008152600401613a8291906140e9565b60405180910390fd5b805160208201fd5b63150b7a0260e01b7bffffffffffffffffffffffffffffffffffffffffffffffffffffffff1916817bffffffffffffffffffffffffffffffffffffffffffffffffffffffff191614613b1c57836040517f64a0ae92000000000000000000000000000000000000000000000000000000008152600401613b1391906140e9565b60405180910390fd5b505b5050505050565b600080613b3184613197565b9050600073ffffffffffffffffffffffffffffffffffffffff168373ffffffffffffffffffffffffffffffffffffffff1614613b7357613b72818486613d3f565b5b600073ffffffffffffffffffffffffffffffffffffffff168173ffffffffffffffffffffffffffffffffffffffff1614613c0457613bb56000856000806135b8565b6001600360008373ffffffffffffffffffffffffffffffffffffffff1673ffffffffffffffffffffffffffffffffffffffff168152602001908152602001600020600082825403925050819055505b600073ffffffffffffffffffffffffffffffffffffffff168573ffffffffffffffffffffffffffffffffffffffff1614613c87576001600360008773ffffffffffffffffffffffffffffffffffffffff1673ffffffffffffffffffffffffffffffffffffffff168152602001908152602001600020600082825401925050819055505b846002600086815260200190815260200160002060006101000a81548173ffffffffffffffffffffffffffffffffffffffff021916908373ffffffffffffffffffffffffffffffffffffffff160217905550838573ffffffffffffffffffffffffffffffffffffffff168273ffffffffffffffffffffffffffffffffffffffff167fddf252ad1be2c89b69c2b068fc378daa952ba7f163c4a11628f55a4df523b3ef60405160405180910390a4809150509392505050565b613d4a838383613e03565b613dfe57600073ffffffffffffffffffffffffffffffffffffffff168373ffffffffffffffffffffffffffffffffffffffff1603613dbf57806040517f7e273289000000000000000000000000000000000000000000000000000000008152600401613db6919061417f565b60405180910390fd5b81816040517f177e802f000000000000000000000000000000000000000000000000000000008152600401613df59291906157f5565b60405180910390fd5b505050565b60008073ffffffffffffffffffffffffffffffffffffffff168373ffffffffffffffffffffffffffffffffffffffff1614158015613ebb57508273ffffffffffffffffffffffffffffffffffffffff168473ffffffffffffffffffffffffffffffffffffffff161480613e7c5750613e7b84846129f6565b5b80613eba57508273ffffffffffffffffffffffffffffffffffffffff16613ea283612e8b565b73ffffffffffffffffffffffffffffffffffffffff16145b5b90509392505050565b6000604051905090565b600080fd5b600080fd5b60007fffffffff0000000000000000000000000000000000000000000000000000000082169050919050565b613f0d81613ed8565b8114613f1857600080fd5b50565b600081359050613f2a81613f04565b92915050565b600060208284031215613f4657613f45613ece565b5b6000613f5484828501613f1b565b91505092915050565b60008115159050919050565b613f7281613f5d565b82525050565b6000602082019050613f8d6000830184613f69565b92915050565b600081519050919050565b600082825260208201905092915050565b60005b83811015613fcd578082015181840152602081019050613fb2565b60008484015250505050565b6000601f19601f8301169050919050565b6000613ff582613f93565b613fff8185613f9e565b935061400f818560208601613faf565b61401881613fd9565b840191505092915050565b6000602082019050818103600083015261403d8184613fea565b905092915050565b6000819050919050565b61405881614045565b811461406357600080fd5b50565b6000813590506140758161404f565b92915050565b60006020828403121561409157614090613ece565b5b600061409f84828501614066565b91505092915050565b600073ffffffffffffffffffffffffffffffffffffffff82169050919050565b60006140d3826140a8565b9050919050565b6140e3816140c8565b82525050565b60006020820190506140fe60008301846140da565b92915050565b61410d816140c8565b811461411857600080fd5b50565b60008135905061412a81614104565b92915050565b6000806040838503121561414757614146613ece565b5b60006141558582860161411b565b925050602061416685828601614066565b9150509250929050565b61417981614045565b82525050565b60006020820190506141946000830184614170565b92915050565b600080604083850312156141b1576141b0613ece565b5b60006141bf85828601614066565b92505060206141d085828601614066565b9150509250929050565b6000806000606084860312156141f3576141f2613ece565b5b60006142018682870161411b565b93505060206142128682870161411b565b925050604061422386828701614066565b9150509250925092565b6000806040838503121561424457614243613ece565b5b600061425285828601614066565b92505060206142638582860161411b565b9150509250929050565b600061012082019050614283600083018c614170565b614290602083018b6140da565b61429d604083018a614170565b6142aa6060830189614170565b6142b76080830188614170565b6142c460a0830187614170565b6142d160c0830186613f69565b6142de60e0830185613f69565b8181036101008301526142f18184613fea565b90509a9950505050505050505050565b61430a81613f5d565b811461431557600080fd5b50565b60008135905061432781614301565b92915050565b6000806040838503121561434457614343613ece565b5b600061435285828601614066565b925050602061436385828601614318565b9150509250929050565b600060c0820190506143826000830189614170565b61438f6020830188614170565b61439c60408301876140da565b81810360608301526143ae8186613fea565b90506143bd6080830185614170565b6143ca60a0830184613f69565b979650505050505050565b600080fd5b600080fd5b7f4e487b7100000000000000000000000000000000000000000000000000000000600052604160045260246000fd5b61441782613fd9565b810181811067ffffffffffffffff82111715614436576144356143df565b5b80604052505050565b6000614449613ec4565b9050614455828261440e565b919050565b600067ffffffffffffffff821115614475576144746143df565b5b61447e82613fd9565b9050602081019050919050565b82818337600083830152505050565b60006144ad6144a88461445a565b61443f565b9050828152602081018484840111156144c9576144c86143da565b5b6144d484828561448b565b509392505050565b600082601f8301126144f1576144f06143d5565b5b813561450184826020860161449a565b91505092915050565b6000806040838503121561452157614520613ece565b5b600061452f85828601614066565b925050602083013567ffffffffffffffff8111156145505761454f613ed3565b5b61455c858286016144dc565b9150509250929050565b600060408201905061457b6000830185614170565b6145886020830184614170565b9392505050565b6000602082840312156145a5576145a4613ece565b5b60006145b38482850161411b565b91505092915050565b6000819050919050565b60006145e16145dc6145d7846140a8565b6145bc565b6140a8565b9050919050565b60006145f3826145c6565b9050919050565b6000614605826145e8565b9050919050565b614615816145fa565b82525050565b6000602082019050614630600083018461460c565b92915050565b6000806040838503121561464d5761464c613ece565b5b600061465b8582860161411b565b925050602061466c85828601614318565b9150509250929050565b600080600080600060a0868803121561469257614691613ece565b5b60006146a088828901614066565b95505060206146b188828901614066565b94505060406146c288828901614066565b93505060606146d388828901614318565b925050608086013567ffffffffffffffff8111156146f4576146f3613ed3565b5b614700888289016144dc565b9150509295509295909350565b600061012082019050614723600083018c614170565b614730602083018b6140da565b8181036040830152614742818a613fea565b905081810360608301526147568189613fea565b90506147656080830188613f69565b61477260a0830187613f69565b61477f60c0830186614170565b61478c60e0830185614170565b61479a610100830184614170565b9a9950505050505050505050565b6000610100820190506147be600083018b6140da565b6147cb602083018a614170565b6147d86040830189614170565b6147e56060830188614170565b6147f26080830187614170565b6147ff60a0830186613f69565b61480c60c0830185613f69565b81810360e083015261481e8184613fea565b90509998505050505050505050565b600067ffffffffffffffff821115614848576148476143df565b5b61485182613fd9565b9050602081019050919050565b600061487161486c8461482d565b61443f565b90508281526020810184848401111561488d5761488c6143da565b5b61489884828561448b565b509392505050565b600082601f8301126148b5576148b46143d5565b5b81356148c584826020860161485e565b91505092915050565b600080600080608085870312156148e8576148e7613ece565b5b60006148f68782880161411b565b94505060206149078782880161411b565b935050604061491887828801614066565b925050606085013567ffffffffffffffff81111561493957614938613ed3565b5b614945878288016148a0565b91505092959194509250565b60008060006060848603121561496a57614969613ece565b5b600084013567ffffffffffffffff81111561498857614987613ed3565b5b614994868287016144dc565b935050602084013567ffffffffffffffff8111156149b5576149b4613ed3565b5b6149c1868287016144dc565b92505060406149d286828701614318565b9150509250925092565b60006080820190506149f16000830187614170565b6149fe6020830186614170565b614a0b6040830185614170565b614a186060830184614170565b95945050505050565b60008060408385031215614a3857614a37613ece565b5b6000614a468582860161411b565b9250506020614a578582860161411b565b9150509250929050565b600061010082019050614a77600083018b6140da565b8181036020830152614a89818a613fea565b90508181036040830152614a9d8189613fea565b9050614aac6060830188613f69565b614ab96080830187613f69565b614ac660a0830186614170565b614ad360c0830185614170565b614ae060e0830184614170565b9998505050505050505050565b7f4e487b7100000000000000000000000000000000000000000000000000000000600052602260045260246000fd5b60006002820490506001821680614b3457607f821691505b602082108103614b4757614b46614aed565b5b50919050565b7f43616e6e6f74207472616e736665722064697370757465642049500000000000600082015250565b6000614b83601b83613f9e565b9150614b8e82614b4d565b602082019050919050565b60006020820190508181036000830152614bb281614b76565b9050919050565b7f4e6f7420746865206f776e657200000000000000000000000000000000000000600082015250565b6000614bef600d83613f9e565b9150614bfa82614bb9565b602082019050919050565b60006020820190508181036000830152614c1e81614be2565b9050919050565b7f546f6b656e20646f6573206e6f74206578697374000000000000000000000000600082015250565b6000614c5b601483613f9e565b9150614c6682614c25565b602082019050919050565b60006020820190508181036000830152614c8a81614c4e565b9050919050565b7f5061796d656e74206d7573742062652067726561746572207468616e20300000600082015250565b6000614cc7601e83613f9e565b9150614cd282614c91565b602082019050919050565b60006020820190508181036000830152614cf681614cba565b9050919050565b7f4e487b7100000000000000000000000000000000000000000000000000000000600052601160045260246000fd5b6000614d3782614045565b9150614d4283614045565b9250828201905080821115614d5a57614d59614cfd565b5b92915050565b6000614d6b82614045565b9150614d7683614045565b9250828202614d8481614045565b91508282048414831517614d9b57614d9a614cfd565b5b5092915050565b7f4e487b7100000000000000000000000000000000000000000000000000000000600052601260045260246000fd5b6000614ddc82614045565b9150614de783614045565b925082614df757614df6614da2565b5b828204905092915050565b6000614e0d82614045565b9150614e1883614045565b9250828203905081811115614e3057614e2f614cfd565b5b92915050565b600081905092915050565b50565b6000614e51600083614e36565b9150614e5c82614e41565b600082019050919050565b6000614e7282614e44565b9150819050919050565b7f506c6174666f726d20666565207472616e73666572206661696c656400000000600082015250565b6000614eb2601c83613f9e565b9150614ebd82614e7c565b602082019050919050565b60006020820190508181036000830152614ee181614ea5565b9050919050565b7f4e487b7100000000000000000000000000000000000000000000000000000000600052603260045260246000fd5b7f4469737075746520646f6573206e6f7420657869737400000000000000000000600082015250565b6000614f4d601683613f9e565b9150614f5882614f17565b602082019050919050565b60006020820190508181036000830152614f7c81614f40565b9050919050565b7f4469737075746520616c7265616479207265736f6c7665640000000000000000600082015250565b6000614fb9601883613f9e565b9150614fc482614f83565b602082019050919050565b60006020820190508181036000830152614fe881614fac565b9050919050565b7f495020616c726561647920646973707574656400000000000000000000000000600082015250565b6000615025601383613f9e565b915061503082614fef565b602082019050919050565b6000602082019050818103600083015261505481615018565b9050919050565b600061506682614045565b91507fffffffffffffffffffffffffffffffffffffffffffffffffffffffffffffffff820361509857615097614cfd565b5b600182019050919050565b60008190508160005260206000209050919050565b60006020601f8301049050919050565b600082821b905092915050565b6000600883026151057fffffffffffffffffffffffffffffffffffffffffffffffffffffffffffffffff826150c8565b61510f86836150c8565b95508019841693508086168417925050509392505050565b600061514261513d61513884614045565b6145bc565b614045565b9050919050565b6000819050919050565b61515c83615127565b61517061516882615149565b8484546150d5565b825550505050565b600090565b615185615178565b615190818484615153565b505050565b5b818110156151b4576151a960008261517d565b600181019050615196565b5050565b601f8211156151f9576151ca816150a3565b6151d3846150b8565b810160208510156151e2578190505b6151f66151ee856150b8565b830182615195565b50505b505050565b600082821c905092915050565b600061521c600019846008026151fe565b1980831691505092915050565b6000615235838361520b565b9150826002028217905092915050565b61524e82613f93565b67ffffffffffffffff811115615267576152666143df565b5b6152718254614b1c565b61527c8282856151b8565b600060209050601f8311600181146152af576000841561529d578287015190505b6152a78582615229565b86555061530f565b601f1984166152bd866150a3565b60005b828110156152e5578489015182556001820191506020850194506020810190506152c0565b8683101561530257848901516152fe601f89168261520b565b8355505b6001600288020188555050505b505050505050565b7f46656520746f6f20686967680000000000000000000000000000000000000000600082015250565b600061534d600c83613f9e565b915061535882615317565b602082019050919050565b6000602082019050818103600083015261537c81615340565b9050919050565b7f4e6f20726f79616c7469657320746f20636c61696d0000000000000000000000600082015250565b60006153b9601583613f9e565b91506153c482615383565b602082019050919050565b600060208201905081810360008301526153e8816153ac565b9050919050565b7f526f79616c7479207472616e73666572206661696c6564000000000000000000600082015250565b6000615425601783613f9e565b9150615430826153ef565b602082019050919050565b6000602082019050818103600083015261545481615418565b9050919050565b7f4f6e6c79204950206f776e65722063616e206d696e74206c6963656e73657300600082015250565b6000615491601f83613f9e565b915061549c8261545b565b602082019050919050565b600060208201905081810360008301526154c081615484565b9050919050565b7f4475726174696f6e20746f6f2073686f72740000000000000000000000000000600082015250565b60006154fd601283613f9e565b9150615508826154c7565b602082019050919050565b6000602082019050818103600083015261552c816154f0565b9050919050565b7f496e76616c696420726f79616c74792070657263656e74616765000000000000600082015250565b6000615569601a83613f9e565b915061557482615533565b602082019050919050565b600060208201905081810360008301526155988161555c565b9050919050565b7f526f79616c74792063616e6e6f74206578636565642035302500000000000000600082015250565b60006155d5601983613f9e565b91506155e08261559f565b602082019050919050565b60006020820190508181036000830152615604816155c8565b9050919050565b6000819050919050565b600061563061562b6156268461560b565b6145bc565b614045565b9050919050565b61564081615615565b82525050565b600060a08201905061565b60008301886140da565b6156686020830187614170565b61567560408301866140da565b6156826060830185614170565b61568f6080830184615637565b9695505050505050565b6000815190506156a881614104565b92915050565b6000602082840312156156c4576156c3613ece565b5b60006156d284828501615699565b91505092915050565b60006060820190506156f060008301866140da565b6156fd6020830185614170565b61570a60408301846140da565b949350505050565b600081519050919050565b600082825260208201905092915050565b600061573982615712565b615743818561571d565b9350615753818560208601613faf565b61575c81613fd9565b840191505092915050565b600060808201905061577c60008301876140da565b61578960208301866140da565b6157966040830185614170565b81810360608301526157a8818461572e565b905095945050505050565b6000815190506157c281613f04565b92915050565b6000602082840312156157de576157dd613ece565b5b60006157ec848285016157b3565b91505092915050565b600060408201905061580a60008301856140da565b6158176020830184614170565b939250505056fea26469706673582212202927bc55cf0e5157f075173b0c46286440c37ddabd196348ef0a4bc821c427ba64736f6c63430008180033",
  "linkReferences": {},
  "deployedLinkReferences": {}
}